:100000000C94B1010C94020B0C94F8010C94F801BF
:100010000C94F8010C94F8010C94F8010C94F8017C
:100020000C94F8010C94F8010C9405220C94D7223E
:100030000C947E180C94F8010C94F8010C94F801BF
:100040000C94F8010C94F8010C94F8010C94F8014C
:100050000C94F8010C94CB180C94F8010C94F80152
:100060000C94F8010C94F8010C94F8010C94F8012C
:100070000C94F8010C94F8010C94F8010C94F8011C
:100080000C94F8010C94F8010C94F8010C94F8010C
:100090000C94F8010C94F8010C94F8010C94F801FC
:1000A0000C94F8010C94F8010C94F8015C0E5C0EB1
:1000B0008E0E8E0EDB0EF90E1A101A10040F990F09
:1000C000AA0FAA0F0A101A101A101310BA10BA1099
:1000D000CC10CC10C310CC10CC10CC10BA10BA106D
:1000E000C810CC10CC10C81044236B2363246B239E
:1000F0006324B723DA236324312440242900350004
:100100001E001F0020002100220031002B001400DF
:100110001A000800150017004B00390004001600F3
:10012000070009000A004E00E1001D001B00060048
:10013000190005000005E0000151E200E30049005C
:100140002C002E002D00270026002500240023006F
:1001500030002F00130012000C0018001C002800B3
:10016000340033000F000E000D000B004A00E500C4
:10017000380037003600100011004D004F005200CB
:10018000510050004C002A00A50000003A003B003E
:100190003C003D003E00A7000000680069006A00C6
:1001A0006B006C00A60000000000000000000000D2
:1001B00000000000000000000000B200000000008D
:1001C0000000000001000000065C0F5C000045001C
:1001D000440043004200410040003F0073007200B1
:1001E000710070006F006E006D00000000000000E4
:1001F0000000000000000000BD0000000000000042
:100200000000A8000000BE00AB00A900AA00AC00DE
:10021000000000002A03540068006500200056001A
:1002200069007400650072006200690020004B00E4
:100230006500790062006F006100720064000000D8
:100240000E034B0065006500620069006F0000004E
:100250000403090409023B00020100A0FA0904009A
:1002600000010301010009211101000122400007E2
:1002700005810308000A09040100010300000009C8
:1002800021110100012281000705820320000A12CA
:100290000110010000000810CB57210002010200EC
:1002A0000105010902A10185020901A10005091941
:1002B0000129051500250195057501810295017536
:1002C0000381010501093009311581257F950275EA
:1002D00008810609381581257F9501750881060575
:1002E0000C0A38021581257F950175088106C0C06A
:1002F00005010980A101850319012AB7001501260E
:10030000B700950175108100C0050C0901A1018598
:100310000419012AA002150126A002950175108179
:1003200000C005010906A101050719E029E715002C
:100330002501950875018102950175088101050760
:10034000190029FF150026FF009506750881000594
:10035000081901290595057501910295017503910B
:1003600001C011241FBECFEFDAE0DEBFCDBF04B65F
:1003700003FE27C080917F0290918002A0918102AC
:10038000B09182028730904BA740B04BD1F41092CD
:100390007F0210928002109281021092820214BE9B
:1003A00084B7877F84BF0FB6F894A89580916000CA
:1003B000886180936000109260000FBEE0E0F8E377
:1003C000099511E0A0E0B1E0EAEAFAE402C0059084
:1003D0000D92AC39B107D9F722E0ACE9B1E001C028
:1003E0001D92AF37B207E1F70E94451F0C945325C9
:1003F0000C9400000E94150785E00E94830760E0CE
:1004000070E0CB010E945F170C946B1781E0089598
:1004100081E008950C94080208950C940C021F9337
:10042000CF93DF9300D000D01F92CDB7DEB74983C2
:100430005A836B833091BF0189819A81311114C035
:10044000662359F0222349F00E94F315182F682FD4
:1004500089819A810E949C1503C00E94C715182F9C
:1004600069817A81812F04C00E94F31569817A81A4
:100470000F900F900F900F900F90DF91CF911F91E1
:100480000C94C902FC01262F408151816281738145
:1004900084810C940F02CF93DF93EC0160E00E9403
:1004A0004202BE01DF91CF910C940D020E942517EC
:1004B000811102C00E94CE170E9428080C94E50406
:1004C0000C94E10408950E94A8100E9462022FEF8C
:1004D00084E39CE0215080409040E1F700C00000A0
:1004E0000C94F1180F931F93CF93DF93EC0161E00D
:1004F0000E9442028C01BE010E940A02882379F107
:10050000BE01C8010E948907882349F1BE01C801C4
:100510000E94AB08882319F1BE01C8010E94FD08A2
:100520008823E9F0BE01C8010E94280A8823B9F097
:100530008A81882369F001158CE5180731F00F3D99
:100540001C4531F40E94CE170AC00E94630207C006
:10055000CE01DF91CF911F910F910C94060280E0A4
:10056000DF91CF911F910F91089508950C94B502DA
:1005700081E008950C94B802CF93C82F0E94B60270
:100580008C2F0E94BA02CF91089580E090E00895E8
:10059000089526E4829FC0011124FC0127E0729F88
:1005A000E00DF11D1124E60FF11DEE0FFF1FE450C9
:1005B000FF4F859194910895880F991FFC01EC5E7F
:1005C000FD4F859194910895CF93DF930E94C902C6
:1005D0000E94FC03EC018115904508F041C0C11553
:1005E00080E4D80708F0D1C0C83ED10510F5C03E60
:1005F000D10508F0FDC0C83AD10578F4C53AD10557
:1006000008F0A2C0C130D10509F4F2C008F4EEC070
:10061000C430D10508F0ECC0E9C0CF3BD10508F4E7
:100620009BC0C03CD10508F4E1C0CE01805C9109BB
:100630009EC0C11590E2D90758F4C11521E0D20738
:1006400008F0D6C0C03FD10508F4D0C0D065D0C0F6
:10065000C11580E3D80708F08EC0CE019F7087C017
:10066000C11595E5D90708F043C0C11524E5D207A7
:1006700008F0A2C0C11582E5D80708F5C11591E5BB
:10068000D90708F085C0CE0174E0969587957A95D4
:10069000E1F783709C2F937021E030E002C0220FBD
:1006A000331F9A95E2F73C68382BCF70C695C695F4
:1006B00080E2C89FE0011124C22BD32B99C09E0178
:1006C000237033278C2F86958695C115D34508F066
:1006D00064C0C1E0D0E002C0CC0FDD1F2A95E2F774
:1006E00020E2829FC0011124C82BD92BDC6880C076
:1006F000C11529E5D207A0F4C11588E5D80708F08F
:1007000060C0C11596E5D90708F070C08C2F0E9413
:1007100090048F71C82FD0E0DC2FCC27D06268C046
:10072000C1152AE5D20708F451C0CE0190568115B3
:10073000904208F05BC08D2F8F710E949004DD27DE
:10074000D0628F71D82B54C0C55AD0E0C45BDE4F45
:10075000C881D0E0D0644CC0C85AD0E0CC0FDD1FB7
:10076000C25EDE4F0990D881C02DD46441C00E9482
:10077000DC02EC013DC0CE019927D3FF03C0EC01A0
:10078000D86C36C0EC01D06C33C0DF70D06A30C09A
:10079000DC2FCC27C16FD06A2BC0C1E0D0E002C0F3
:1007A000CC0FDD1F2A95E2F720E2829FC0011124C1
:1007B000C82BD92BDA681CC0DC2FCC27C46FD06AB9
:1007C00017C0DC2FCC27C06FD06A12C08C2F8F705F
:1007D0000E94900494E0D695C7959A95E1F7CF7062
:1007E000D0E0DC2FCC27D069C82B02C0C0E0D0E01D
:1007F000CE01DF91CF9108958238910569F1B0F46F
:100800008133910509F46DC048F48932910509F4EA
:1008100063C08A32910509F469C008958533910552
:1008200009F455C089339105B9F00895833E9105C7
:1008300069F138F4803E9105B1F0823E910509F1ED
:100840000895863E9105A9F1873E9105B9F1843E50
:10085000910509F064C023C02091700220FD4FC0B3
:1008600021FD4DC008958091700280FD44C08091AB
:10087000710280FF44C08091700284FD42C083EE0B
:100880004DC08091700282FF38C0F5CF8091700218
:1008900082FD33C08091710280FD31C0ECCF809128
:1008A000710281FF32C08091700284FD2AC087EE00
:1008B00035C08091700283FF26C0F5CF8091700211
:1008C00083FD21C08091710281FD1FC0ECCF80911A
:1008D000700285FD1CC01DC08091700285FD19C08D
:1008E00016C08091700286FD16C017C080917002FC
:1008F00086FD13C010C089E311C082EE0FC080EEE8
:100900000DC080E00BC086EE09C084EE07C089E20E
:1009100005C085E303C08AE201C081E390E0089549
:100920009091700292FF0DC0282F2871283019F481
:10093000877F846006C0282F2471243011F48B7FB8
:10094000886093FF0DC0282F2871283119F4877E05
:10095000846106C0282F2471243111F48B7E8861B4
:100960002091710220FF0DC0382F3871383019F4F2
:10097000877F816006C0382F3171313011F48E7F4E
:10098000886021FF0DC0282F2871283119F4877E37
:10099000816106C0282F2171213111F48E7E88617A
:1009A00094FD877E0895E82FF0E0E15AFD4F8081A5
:1009B0000895089580EA8A95F1F7089508950C94B2
:1009C000DE040C94DF040C94DE040C94E304F8942D
:1009D000E82FE295EF70F0E031A1282F2F7081E031
:1009E00090E001C0880F2A95EAF7982F90959323FD
:1009F00091A392A1892B82A37894089508950F93CF
:100A00001F93CF93DF930E94510680910001809144
:100A10000001811102C095E001C090E090936A024C
:100A200085E0891B8093690284E90E94E70487E9D5
:100A30000E94E70486EC0E94E70484E30E94E70436
:100A400085E30E94E704CFE4D1E006E511E0899157
:100A50000E94E7040C171D07D1F7E5E5F2E0AFE5CA
:100A6000B2E011921D9282E0EF35F807D1F785E0F0
:100A70000E94F6050E945602DF91CF911F910F91BF
:100A80000C945B060E943406882309F18091690268
:100A900090E0815A9D4F0E946E06811114C0809192
:100AA0009C018F5F80939C01863078F0E091690211
:100AB000F0E0E15AFD4F80E090E011920196853020
:100AC0009105D9F702C010929C010C9460028091AC
:100AD0006A0290E0815A9D4F0E9493060C94FE0496
:100AE0008F929F92AF92BF92CF92DF92EF92FF923E
:100AF0000F931F93CF93DF9386E5A82E81E0B82E46
:100B0000C5E5D2E09BE5E92E91E0F92E912C01E0BC
:100B100010E06501F5018081F894E82FE295EF700F
:100B2000F0E021A18F70A80102C0440F551F8A95E3
:100B3000E2F7CA01922F982B91A392A18095892365
:100B400082A378940E94DA04EFE4F1E020E030E040
:100B5000812C4191A42FA295AF70B0E090968C911A
:100B600090E04F7002C0959587954A95E2F780FD19
:100B700007C0802F022E01C0880F0A94EAF701C037
:100B800080E0882A2F5F3F4F2730310511F75FEF54
:100B9000A51AB50AF60180810E94E70488818816AB
:100BA00019F0888281E001C080E0982A2196EA1439
:100BB000FB0409F0AECF60916A0270E0615A7D4F8C
:100BC000292D45E085E592E00E94F7050E94420547
:100BD000892DDF91CF911F910F91FF90EF90DF90C2
:100BE000CF90BF90AF909F908F9008950895FF92FF
:100BF0000F931F93CF93DF938C01F62ED72FC42F23
:100C0000222349F081E080939F010E94B0189093C5
:100C10009E0180939D0180919F018823C1F0809166
:100C20009D0190919E010E94BC18069780F0EF2DC7
:100C3000FD2FD8014C2F50E0CD01801B910B841764
:100C400095071CF48D918193F7CF10929F01DF914E
:100C5000CF911F910F91FF90089552985A9889B1A2
:100C600082FB882780F908958091A001811112C02C
:100C70008091D80080618093D8008AE18A95F1F74D
:100C800000C08091D90080FD02C082E001C081E0F7
:100C90008093A00181E09091A001913009F080E063
:100CA00008950E942D06809300010E943406811150
:100CB0000C94620608950E943406811102C00C94BF
:100CC0006806089561E070E081E091E00C94B40A58
:100CD00061E070E081E091E00C94BB0ACF93DF9378
:100CE000D82FC92F0E94530B892BC9F4ED2FFC2F4D
:100CF00080E090E0DC01AD55BE4F2C912193019630
:100D000085309105B9F70E94A506882319F00E9445
:100D1000A90601C080E08093A20181E001C080E0CB
:100D2000DF91CF91089520E030E0FC014191CF01A7
:100D3000F901ED55FE4F40832F5F3F4F25303105C0
:100D4000A1F78091A2010C94BE0780916B02817083
:100D5000089580916B0286958695869508950E94E8
:100D60002517811102C00E94CE170E94561780934A
:100D70006B02282F26952695269530E028303105E0
:100D800024F08770886380936B0280916B0280FFF0
:100D900004C086958695869501C080E00C94BE07B8
:100DA00020916B02822F869586958695482F50E07C
:100DB0004730510554F48F5F982F990F990F990F71
:100DC000822F8770892B80936B0280916B028160E8
:100DD00080936B020E945A1780916B0286958695CC
:100DE00086950C94BE0780916B02982F96959695E8
:100DF0009695A1F0915E990F990F990F8770892BA5
:100E000080936B02887F91E009F490E080916B02FF
:100E100090FB80F980936B020E945A1780916B02BD
:100E20008695869586950C94BE0780916B0280FD11
:100E300013C0816080936B02813019F489E0809344
:100E40006B0280916B020E945A1780916B0286950B
:100E5000869586950C94BE07089580916B0280FF5D
:100E600008C08E7F80936B020E945A1780E00C941A
:100E7000BE07089580916B0280FD0C942D070C94A1
:100E8000150790916B02892F8695869586958F5FC1
:100E90008F719770883038F4880F880F880F892BEE
:100EA00080936B0202C090936B0280916B02887FEB
:100EB00091E009F490E080916B0290FB80F98093BF
:100EC0006B020E945A1780916B02869586958695D3
:100ED0000C94BE07883008F087E090916B02977001
:100EE000282F220F220F220F922B90936B02987FB4
:100EF00021E009F420E090916B0220FB90F990939F
:100F00006B020C94BE070E946A0780916B020C94DE
:100F10005A179C01FB018281882349F12E3BFCE595
:100F20003F07C9F040F42C3BECE53E0769F02D3B50
:100F30003C4561F00895203C9CE5390791F070F044
:100F4000213C3C4589F0089587E001C080E00E9483
:100F5000830780E008950E94F306FBCF0E94D0062D
:100F6000F8CF0E943A07F5CF0E944107F2CF81E007
:100F70000895269A2E9808952E980895CF92DF927C
:100F8000EF92FF92CF93C82F883050F4811109C09F
:100F9000809180008F7D809380000E94BC0706C0F6
:100FA000C7E0809180008062809380002C2F30E029
:100FB000AFEFBFEF0E94F72427E030E040E050E0C1
:100FC0000E94CF24B42FA32F922F8827492F5A2F66
:100FD0006B2F7727CA014C3724E1520728F469E0C8
:100FE00070E00E94A72429C0DB01CA018A50974DF6
:100FF000AF4FBF4F6627782F892F9A2F25EF38E202
:1010000041E050E00E94CF2469017A01CA01B90190
:101010000E9497249B01AC01C701B6010E9497244E
:10102000BB27A92F982F872F009721E0A207B10592
:1010300011F0BC0102C06FEF7FEF70938B006093E3
:101040008A00CF91FF90EF90DF90CF9008950895A0
:101050000E94B90782E28093800089E18093810039
:101060008FEF9FEF90938700809386000C94AF06DC
:101070000F931F93CF93DF93C42FD22FFC01828154
:101080008823C9F04093AA010E94B0189093A90147
:101090008093A80180E28C0F883008F057C0C77099
:1010A00081E001C0880FCA95EAF7DF91CF911F91C7
:1010B0000F910C94180E8091AA01481330C08091B2
:1010C000A8019091A9010E94BC18883C910538F5AF
:1010D00010E21D0FCD17B9F080E28C0F883040F47C
:1010E000C77081E001C0880FCA95EAF70E941F0E01
:1010F000183028F581E09D2F977001C0880F9A95D0
:10110000EAF70E94180E802F0E94050E1830F0F4A6
:10111000D77081E001C0880FDA95EAF70AC080E253
:101120008C0F883098F4C77081E001C0880FCA9591
:10113000EAF7DF91CF911F910F910C941F0E802F32
:10114000DF91CF911F910F910C94050EDF91CF91FC
:101150001F910F9108950F939C01CB01243F4CE503
:10116000340731F188F4293DFCE53F07D9F02A3DE9
:101170004CE5340779F1283D3C45A9F506E221EE1E
:1011800041EE68ED7CE52BC0263FFCE53F07E1F032
:10119000A8F0273F3C4539F507E225EE46EE67EF1C
:1011A0007CE51DC007E225EE45EE69ED7CE517C044
:1011B00006E221EE40EE64EF7CE511C007E225EE89
:1011C00044EE65EF7CE50BC006E221EE42EE66EFF1
:1011D0007CE505C008E221E045EE6AED7CE50E9471
:1011E000380880E008C0FC018281882319F0109241
:1011F000AA0101C081E00F910895CF93DF93EC0124
:10120000FB018281882309F41FC1C230FCE5DF079E
:1012100008F41BC1C6319CE5D90738F09E012B5F4D
:101220003C452930310508F010C10E9438179093D1
:10123000710280937002C031ECE5DE0709F4C3C08F
:1012400008F041C0C8308CE5D80709F49AC0F0F422
:10125000C430ECE5DE0709F487C068F4C2308CE5E1
:10126000D80709F477C0C330DC4509F0E3C08091AA
:101270007002826076C0C630ECE5DE0709F46EC00D
:1012800008F07BC08091700288606BC0CC308CE528
:10129000D80709F485C068F4CA30ECE5DE0709F424
:1012A00074C008F079C00E94A81080917002806814
:1012B00058C0CE308CE5D80709F476C008F07FC05E
:1012C000809170028BC0CC3FECE5DE0709F44FC083
:1012D00018F5C3318CE5D80709F47DC078F4C13125
:1012E000ECE5DE0709F473C0C231DC4509F0A2C0A9
:1012F0000E94A810809170028F7733C0C5318CE5B1
:10130000D80709F472C008F486C0CB3FDC4509F069
:1013100091C0809171023EC0C115FDE5DF0709F45F
:101320005FC058F4CE3F9CE5D90709F444C008F4E7
:101330003FC08091710282602DC0C230FDE5DF07A1
:1013400009F475C008F45DC0C330DD4509F072C012
:1013500080E06EC080917002816003C08091700255
:1013600080618093700266C08091700211C080918C
:1013700071028260809371025DC080917002806210
:10138000F0CF809170028064ECCF80917002886011
:101390008460E7CF8160EECF809170028E7FE1CFD5
:1013A000809170028D7FDDCF80917002877FD9CFD1
:1013B0008091710218C0809171028D7FDBCF809186
:1013C00070028F7ECECF809170028F7DCACF8091C8
:1013D00070028F7BC6CF80917002877F8B7FC1CFD9
:1013E000809171028D7F8E7FC5CF8091700282FBCC
:1013F000222720F991E0922790FB82F990FB83F954
:10140000B0CF80917102982F909591708E7F892B2B
:1014100090FB81F9AFCF0E94A8108091700287FBEA
:10142000222720F991E0922790FB87F99ACF81E05B
:101430000E94D01780917002909171020E9449170A
:101440000E94A81080E001C081E0DF91CF91089553
:10145000CF93DF9386319C4541F5EB010E947416D2
:10146000982F8A812091090130910A01882379F00F
:101470009A7A81E009F480E08093AB01911102C077
:1014800069E201C065E3C9010E9417180AC0809192
:10149000AB01811102C069E201C065E3C9010E948C
:1014A00019180E94C21680E001C081E0DF91CF913F
:1014B00008958EE1489B02C08150E1F7489BFECF22
:1014C0000895589880E28A95F1F7589A0895FC019A
:1014D0002AE02A95F1F728E090E080E031E040E151
:1014E0004A95F1F7880F489B02C08160932700C09E
:1014F000000040E14A95F1F7215089F720E12A9553
:10150000F1F729B100C0000030E13A95F1F7217000
:1015100092272081920F90830895EF92FF920F936C
:101520001F93CF93DF931F92CDB7DEB719828C0143
:101530007C01E60EF11C0E151F0551F00E94590AA0
:10154000CE0101960E94670AF80181938F01F3CFC3
:1015500081E09981911180E00F90DF91CF911F91EF
:101560000F91FF90EF9008959093AD018093AC019F
:10157000509A589A08959093AD018093AC01509879
:10158000589AE89AE9E6F0E080818C7F808308959C
:10159000615091E001C0990F6A95EAF720E031E0CF
:1015A000992361F0492F482319F0589A232701C045
:1015B000589840E24A95F1F79695F2CF222311F020
:1015C000589A01C0589880E28A95F1F75898089582
:1015D000FF920F931F93CF93DF93EC018C01060FC3
:1015E000111DC017D10741F0F9900E94610A68E00F
:1015F0008F2D0E94C80AF5CFDF91CF911F910F91D7
:10160000FF9008951F920F920FB60F9211242F93FF
:101610003F934F935F936F937F938F939F93AF937A
:10162000BF93CF93DF93EF93FF935898509AC09155
:10163000AC01D091AD016D81662321F08E819F8137
:101640000E94E80A0E94610A80E18A95F1F75898A1
:101650005098589A80E18A95F1F76A81662351F093
:101660008B819C810E948D0AE881F981811104C0DF
:1016700082E003C0E881F98188E080830E94590AF2
:10168000FF91EF91DF91CF91BF91AF919F918F919A
:101690007F916F915F914F913F912F910F900FBE6E
:1016A0000F901F901895CF93DF93C091AC01D0910C
:1016B000AD01F894509A589885E08A95F1F70000AA
:1016C0005098589A80E28A95F1F7489B0AC0509A40
:1016D000589AE881F98181E08083789481E090E0F4
:1016E0002CC06D81662381F08E819F810E948D0ABE
:1016F00081110AC0509A589AE881F98182E080836A
:10170000789482E090E019C00E94590A80E28A959C
:10171000F1F75898509A80E18A95F1F76A8166232B
:1017200021F08B819C810E94E80A0E94610AE88175
:10173000F9811082789480E090E0DF91CF91089554
:101740009093B3018093B2010895E091B201F091BA
:10175000B301309721F00190F081E02D099480E0F1
:101760000895E091B201F091B301309721F0028029
:10177000F381E02D09940895E091B201F091B30155
:10178000309739F022E0DC012C930480F581E02DC4
:10179000099408952091B0013091B10128173907BB
:1017A00071F09093B1018093B001E091B201F0919A
:1017B000B301309721F00680F781E02D0994089558
:1017C0002091AE013091AF012817390771F0909345
:1017D000AF018093AE01E091B201F091B301309777
:1017E00021F00084F185E02D0994089585B7806883
:1017F00085BF85B7806885BF08950C943406089529
:101800000C94FF0B0C94FF0B0C94020C0C94FF0B2C
:101810000C94060C0C94FF0B0E94F60B0E940A0C11
:101820000C94080C0E94A7180E94FF040E94021941
:101830000E94AF060C94040CAF92BF92CF92DF923D
:10184000EF92FF920F931F93CF93DF93CDB7DEB745
:101850002A970FB6F894DEBF0FBECDBF0E94000CD2
:101860000E94FF0B0E9470050E94FD0B811111C0A8
:101870008FEF89838A831B820E94B0188160782F42
:101880009D838C8349815A816B818D810E94BA0C22
:1018900040C085EBA82E81E0B82E00E010E0C02EFD
:1018A000802F0E94D304E82EF501D1905F01D82645
:1018B00031F40F5F1F4F0A30110589F7D9CF80919E
:1018C0003A0281FD0E94D90480E0FF24F3949D2D0B
:1018D0009F21D1F08E83CF82EF2081E009F480E058
:1018E00088870E94B0188160782F9A8789874E81F7
:1018F0005F8168858A850E94BA0CF801EB54FE4F1F
:101900008081F826F08205C08F5FFF0C8730F9F6E2
:10191000D0CF0E9427080E94B11A0E94A50B909177
:10192000B4018917B1F00E94A50B8093B4012A96E7
:101930000FB6F894DEBF0FBECDBFDF91CF911F91E0
:101940000F91FF90EF90DF90CF90BF90AF900C94ED
:10195000BC022A960FB6F894DEBF0FBECDBFDF9152
:10196000CF911F910F91FF90EF90DF90CF90BF909C
:10197000AF900895CF93DF93CDB7DEB72B970FB617
:10198000F894DEBF0FBECDBF4F83588769877A8733
:101990008B87DE01119686E0FD0111928A95E9F7A9
:1019A00085E0FE01379601900D928A95E1F7498115
:1019B0005A816B817C818D819E810E9461132B965F
:1019C0000FB6F894DEBF0FBECDBFDF91CF91089563
:1019D000FC01808191810E9435160895CF93882360
:1019E00009F4A9C0C82F8238C1F40E94A50B81FD5B
:1019F000A2C069E38091090190910A010E94171821
:101A00000E94C2162FEF81EE94E02150804090405A
:101A1000E1F700C0000069E319C0833801F50E94B6
:101A2000A50B80FD88C063E58091090190910A01B2
:101A30000E9417180E94C2162FEF81EE94E02150E9
:101A400080409040E1F700C0000063E5809109010B
:101A500090910A010E941918CF910C94C2168438F3
:101A6000C1F40E94A50B82FD66C067E48091090164
:101A700090910A010E9417180E94C2162FEF81EE62
:101A800094E0215080409040E1F700C0000067E4FE
:101A9000DDCF8CEF8C0F813AF8F48C2F0E944F1D14
:101AA000811149C06C2F8091090190910A010E9417
:101AB000E117882349F06C2F8091090190910A0168
:101AC0000E9419180E94C2166C2F809109019091F2
:101AD0000A010E941718C0CF80E28C0F883048F4AA
:101AE000C77081E001C0880FCA95EAF70E94771697
:101AF000B3CFEBE5EC0FE33040F4F0E0E257FE4FFC
:101B0000808190E0CF910C94CA0BE8E5EC0FE731AF
:101B100050F4F0E0EE0FFF1FE05AFE4F80819181FC
:101B2000CF910C94E00BC03F30F08C2F0E94A6198F
:101B3000CF910C94931ACF910895882309F464C02F
:101B4000823879F40E94A50B81FF5EC069E3809121
:101B5000090190910A010E9417180E94C21669E3B8
:101B600010C08338B1F40E94A50B80FF4DC063E51F
:101B70008091090190910A010E9417180E94C216D3
:101B800063E58091090190910A010E9419180C9453
:101B9000C216843879F40E94A50B82FF35C067E431
:101BA0008091090190910A010E9417180E94C216A3
:101BB00067E4E7CF9CEF980F913A10F4682FE1CFDC
:101BC00090E2980F983050F4877091E001C0990F1F
:101BD0008A95EAF7892F0E947D16D9CF9BE5980F49
:101BE000933020F480E090E00C94CA0B98E5980FB5
:101BF000973120F480E090E00C94E00B803F20F0DF
:101C00000E940E1A0C94931A0895CF93C82F0E9425
:101C1000EE0CC93349F42FEF87EE93E0215080405A
:101C20009040E1F700C000008C2FCF910C949D0DE7
:101C3000882321F00E9477160C94C21608958823F9
:101C400021F00E947D160C94C2160895CF92DF9267
:101C5000EF92FF920F931F93CF93DF937C01062F98
:101C6000C72FFC01158112951F70D281D1110E94DE
:101C700094160E946D16882399F0DD2389F08C2F2D
:101C8000807F803421F080E2800F883048F082E04D
:101C90000E940C170E946D1691E0D82ED92601C023
:101CA000D12CCC2EC2948FE0C8228C2D90E0FC0168
:101CB000EA5AFF4F0C94F1248C2F807FCF70882339
:101CC00011F0C295C07FDD2399F0CC2309F48DC1BA
:101CD00080E2800F883010F0011104C08C2F0E9428
:101CE000771603C08C2F0E9487160E94C2167DC1F2
:101CF000802F0E949D0DCC2309F49CC180E2800FAF
:101D0000883010F0011104C08C2F0E947D1603C092
:101D10008C2F0E948D160E94C2168CC18C2F807F42
:101D2000CF70803211F0C295C07F002319F00130CE
:101D3000C9F022C0DD2371F0112341F0113031F4DC
:101D40000E94A7168C2B0E94AF1674C10E94A71682
:101D50008C2B1DC0112319F0113009F46BC10E94A6
:101D6000B81625C0DD2321F0163008F063C10EC07F
:101D7000153008F05FC11BC0DD2361F0112331F085
:101D8000F701858180FF31C18F7085838C2F0E9480
:101D9000180E50C1112359F0093309F037C1FFEF74
:101DA00027EE83E0F15020408040E1F72DC18C2FD9
:101DB0000E941F0E3FC18C2F86958695837019F067
:101DC000813061F037C1DD2321F0802F9C2F93708B
:101DD00002C080E090E00E94CA0B34C1DD2321F0F4
:101DE000802F9C2F937002C080E090E00E94E00B57
:101DF00029C1802FDD2319F00E94A61902C00E947C
:101E00000E1A0E94931A1EC18C2F837009F045C0D0
:101E1000D11114C1402F429546954770440F440F8D
:101E2000602F6F70862F90E0A0E0B0E0042E04C019
:101E3000880F991FAA1FBB1F0A94D2F704FF10C076
:101E40000FE010E020E030E004C0000F111F221F5F
:101E5000331F4A95D2F7009510952095309503C011
:101E600000E010E09801C695C695C370BC01CD0195
:101E7000602B712B822B932BC23049F058F4C13068
:101E800019F00E94B214DAC00E94A014D7C00E94B8
:101E9000C414D4C00E949E14D1C0DD2319F08C2F2D
:101EA000817001C08695882309F4C8C0402F4295EF
:101EB00046954770440F440F602F6F70862F90E057
:101EC000A0E0B0E0042E04C0880F991FAA1FBB1F1A
:101ED0000A94D2F704FF10C00FE010E020E030E0D9
:101EE00004C0000F111F221F331F4A95D2F700951F
:101EF00010952095309503C000E010E09801C6953C
:101F0000C695C370BC01CD01602B712B822B932B26
:101F1000C23049F058F4C13019F00E9477158EC0D4
:101F20000E9465158BC00E94891588C00E94D81434
:101F300085C0CF70DD2339F08C2F0E94FE14802FD6
:101F40000E94180E7BC0802F0E941F0E8C2F0E94B3
:101F50001F1574C0023F01F128F4003F41F0013F1A
:101F6000A1F03FC0033FF9F0043F39F13AC0DD234F
:101F700041F0153008F05EC08C2F8F710E9444151F
:101F800059C0163008F056C0F7CFDD2339F08C2F3A
:101F90008F710E94FE144EC0DD23C9F38C2F8F7108
:101FA0000E941F1547C0DD2329F08C2F8F710E94DE
:101FB000E91440C00E94E4143DC0DD2349F0CF7114
:101FC0008C2F0E94FE1463E08C2F0E94F71632C003
:101FD00081E00E940C17123068F182E00E940C1719
:101FE00029C0DD2331F0112391F2802F0E94EE0CE5
:101FF00021C0112399F2093349F49FEFE7EEF3E092
:102000009150E040F040E1F700C00000802F0E94B6
:102010009D0D10C04C2F4F70602FC7010E94C5024C
:102020000E940F140FC04C2F4F70602FC7010E94E9
:10203000C80208C088EF8C0D843020F40E94A50BE4
:102040000E94BC02DD20C9F00E94691680FD15C007
:10205000F70112820E9463160E94FE14C7010E94BB
:102060005E100E946316DF91CF911F910F91FF9038
:10207000EF90DF90CF900C941F15DF91CF911F91BF
:102080000F91FF90EF90DF90CF9008950F931F93E3
:10209000CF93DF93EC01688179818A810E94401699
:1020A0008C010E949B150E948C14B801CE010E94E5
:1020B000260EDF91CF911F910F910895CF93DF935B
:1020C000EC01988189812B813C81232B31F08F3F5A
:1020D00031F481E09F3F19F403C081E001C080E04A
:1020E00080FD19C0CE010E94720281110CC00E94B5
:1020F0006D16882381F08A81882369F082E0DF9160
:10210000CF910C940C17CE010E944610CE01DF91A6
:10211000CF910C944B02DF91CF9108950E949416B9
:102120000E94A4160E94C2160E94C41B0E94931A09
:1021300080E090E00E94CA0B80E090E00C94E00BFD
:102140008091090190910A010E941B180C948E1035
:102150000E9484160C94A010E92FE295EF704E2F88
:1021600050E0FA013297EE30F105B0F4EA59FF4F32
:102170000C94F124803F91F018F4883E68F40EC06E
:10218000843F51F40BC0883E48F0813F29F406C0DB
:1021900093FB882780F9089580E0089581E00895F1
:1021A0000E9435160E94AC100895CF93DF9300D0A3
:1021B00000D01F92CDB7DEB70F900F900F900F9009
:1021C0000F90DF91CF910895CF93DF9300D000D08F
:1021D00000D0CDB7DEB726960FB6F894DEBF0FBE9F
:1021E000CDBFDF91CF9108951F93CF93DF93C0911F
:1021F000C00116E08091C101C81799F0D0E01C9F82
:10220000F0011D9FF00D1124EE53FE4F40815181CE
:1022100062817381848195810E94E4102196C77048
:10222000E9CFDF91CF911F9108954091F201509134
:10223000F3016091F4017091F5018091F6019091A4
:10224000F7010C94E4100F931F93CF93DF938091C9
:10225000F70182958F7009F05DC08091F4018823A9
:1022600009F458C08091C0011091C1016091F20140
:102270007091F301C091F501D091F60191E06F3FAB
:1022800009F090E0292F06E0811709F443C0209758
:1022900021F07F3F21F030E003C031E001C0322F58
:1022A00090E030FD34C0089FF001099FF00D11242B
:1022B000DF01AE53BE4F11963C911197371327C0E3
:1022C0003C91361324C012963C91129731111FC0D5
:1022D00013964D915C9114974C1B5D0B483C510536
:1022E000B0F48091F7018F7080618093F701E9531A
:1022F000FE4F80818F708061808382EF91E00E9429
:102300005E10DF91CF911F910F910C94F410019604
:102310008770BACFDF91CF911F910F9108959F924F
:10232000AF92BF92CF92DF92EF92FF920F931F93E3
:10233000CF93DF93CDB7DEB761970FB6F894DEBFCA
:102340000FBECDBF8C0185E0F801DE011D96019026
:102350000D928A95E1F7F80140815181E2809091D8
:10236000F2016091F3012091F5013091F601211500
:10237000310531F06F3F31F481E09F3F19F403C024
:1023800081E001C080E0F82FF1709F2E80FD46C1F2
:10239000F801A380B48082EFC82E81E0D82EF0909F
:1023A000F401F501E21BF30BFF2009F4DFC080917B
:1023B000F701E83CF10508F09BC0282F207F09F0C9
:1023C00052C0561313C0491311C0FE2CE1100EC0A9
:1023D0008F7080618093F7010E941511C6010E94E1
:1023E0005E108091F701F801858358C1AB2831F068
:1023F0005F3F31F481E04F3F19F403C081E001C039
:1024000080E080FD03C081E08E2502C080E090E086
:10241000F82FF170FF2E80FF1CC08091C001209129
:10242000C10136E0821709F417C190E0389FF0012E
:10243000399FF00D1124EE53FE4F6181561306C0F3
:102440006081461303C06281E61203C00196877063
:10245000E9CFFE2CEE2009F421C18091F7018160C3
:102460008093F7015AC0561306C0491304C0E11007
:1024700002C0F8019FC04D875E878D859E850E94B2
:10248000D010882379F1EE2069F12091F701822F95
:1024900082958F7090E0029774F08091F201909194
:1024A000F30198878F831986BB86AA862C87CE0175
:1024B00007960E945E1086E0F801A2EFB1E001905D
:1024C0000D928A95E1F70E9423110E9415110DC00B
:1024D000561729F14D875E878D859E850E94D01005
:1024E00081112CC0C8010E945E10FF24F394D6C055
:1024F000282F207F69F77A2DB98AA88A6E2D8989BD
:102500000E94D51082EF91E00E945E1086E0F601F5
:1025100011928A95E9F70E941511F12CBFC0491359
:10252000D9CFE110D7CFF8018583C8010E945E1092
:1025300086E0F60111928A95E9F7B0C0EE2091F29B
:102540002091F701822F82958F7090E002970CF412
:10255000B2CF8091F2019091F3019A8389831B821B
:10256000BD82AC822E83CE010196A3CFE83CF1055B
:1025700008F047C0FE2CEE2009F4B4CF561330C04B
:1025800049132EC02091F70120FD21C0822F829592
:102590008F70482F50E041155105C9F0F80125838F
:1025A0004F30510541F08F5F982F9295907F822F89
:1025B0008F70892B8583C8010E945E1086E0F80128
:1025C000A2EFB1E001900D928A95E1F742C086E05A
:1025D000F801A2EFB1E001900D928A95E1F75EC09B
:1025E0004D875E878D859E850E94D010811163CFB7
:1025F0008091F70181608093F701C8010E945E100D
:102600004DC07A2DB98AA88A6E2D89890E94D5106D
:1026100086E0F60111928A95E9F71BC0EE2009F4D5
:1026200061CF4D875E878D859E850E94D010F82EE4
:10263000882309F457CF86E0F801A2EFB1E00190BA
:102640000D928A95E1F782EF91E00E94E80C0E94DA
:1026500023110E94151122C04D875E878D859E85AE
:102660000E943516292F22952F70223028F49F7052
:1026700039F0811105C00BC0243028F49F7049F453
:10268000805E883020F0C8010E945E109F2CF92CDB
:1026900005C0F8019581907F99F7F9CF8F2D61964C
:1026A0000FB6F894DEBF0FBECDBFDF91CF911F9163
:1026B0000F91FF90EF90DF90CF90BF90AF909F90E1
:1026C00008951F93CF93DF93CDB7DEB72C970FB646
:1026D000F894DEBF0FBECDBF4F83588769877A87D6
:1026E0008B879C87CE0107960E948F118823D1F09B
:1026F0009F8188852A853B85232B31F08F3F31F4DC
:1027000081E09F3F19F403C081E001C080E080FDBB
:1027100047C04F81588569857A858B859C850E9445
:10272000E4103EC086E0FE013796DE01119601906E
:102730000D928A95E1F7FF81E8856A857B856115B1
:10274000710531F0EF3F31F481E0FF3F19F403C030
:1027500081E001C080E080FD23C02091C10130E014
:10276000C9010196877099274091C00150E08417F4
:102770009507F1F1F983EA837D836C8396E0929F5C
:10278000D001939FB00D1124AE53BE4FFE01319680
:1027900001900D929A95E1F78093C1010E94F41087
:1027A00016E08091C0019091C101891771F1189FC5
:1027B000C00111248E539E4F0E948F11882329F14E
:1027C000E091C0011E9FF0011124EE53FE4F4081A5
:1027D000518162817381848195810E94E41080918E
:1027E000C00190E00196877099278093C001D9CFEE
:1027F0000E94A8101092C1011092C001E2EFF1E016
:1028000086E0DF011D928A95E9F72C960FB6F894C1
:10281000DEBF0FBECDBFDF91CF911F910895EF9224
:10282000FF920F931F93CF93DF938C01892B09F4B1
:102830006CC0F12CEE24E394E8012196F801849118
:10284000843740F4843008F051C0813081F0823008
:1028500019F15BC0853709F444C0A8F19CE7980FD3
:10286000903708F052C08F770E949D0D41C00E5FD7
:102870001F4FFE01849190E2980F983050F48770BA
:10288000FE2D01C0FF0F8A95EAF78F2F0E94971641
:1028900014C00E94EE0C2DC00E5F1F4FFE018491EC
:1028A00090E2980F983060F48770FE2D01C0FF0F02
:1028B0008A95EAF78F2F0E949D160E94C21619C0B2
:1028C0000E949D0D16C00E5F1F4FFE01C491CC23C8
:1028D00081F08FE99FE00197F1F700C00000C1503F
:1028E000F6CF0E5F1F4FFE01F49003C00E94EE0C66
:1028F0008E018F2D882309F49FCFEFE9FFE03197F8
:10290000F1F700C000008150F5CFDF91CF911F910A
:102910000F91FF90EF900895089508950C948D14F1
:102920000C948E140E9490146093290270932A02D2
:1029300080932B0290932C020C948E100C94921482
:102940000F931F930091290210912A0220912B02CC
:1029500030912C02602B712B822B932B1F910F91A6
:102960000C9492140F931F930091290210912A0244
:1029700020912B0230912C02602371238223932318
:102980001F910F910C9492140F931F9300912902A1
:1029900010912A0220912B0230912C02602771277E
:1029A000822793271F910F910C9492140C948D14ED
:1029B0000E94D6146093250270932602809327020A
:1029C000909328020C948E1060E070E0CB010C9480
:1029D000D8140F931F9341E050E060E070E08A014B
:1029E0009B0104C0000F111F221F331F8A95D2F7CD
:1029F000C901B8011F910F910C94D8140F931F9324
:102A000041E050E060E070E004C0440F551F661FD5
:102A1000771F8A95D2F78091250290912602A09186
:102A20002702B09128028A019B01082B192B2A2B1F
:102A30003B2BC901B8011F910F910C94D8140F932F
:102A40001F9341E050E060E070E004C0440F551F68
:102A5000661F771F8A95D2F74095509560957095BF
:102A60008091250290912602A0912702B091280220
:102A70008A019B01082319232A233B23C901B8019A
:102A80001F910F910C94D8140F931F9341E050E0C5
:102A900060E070E004C0440F551F661F771F8A95E1
:102AA000D2F78091250290912602A0912702B09141
:102AB00028028A019B01082719272A273B27C901D9
:102AC000B8011F910F910C94D8140F931F9300918C
:102AD0002502109126022091270230912802602BB6
:102AE000712B822B932B1F910F910C94D8140F9361
:102AF0001F93009125021091260220912702309108
:102B0000280260237123822393231F910F910C9439
:102B1000D8140F931F930091250210912602209143
:102B200027023091280260277127822793271F915F
:102B30000F910C94D814089527E0929F800D1124D2
:102B4000E82FE695E695E695877051E001C0550FB0
:102B50008A95EAF785E0E89FF0011124E850FE4FDE
:102B600020E030E070E04081CB01022E02C096955B
:102B700087950A94E2F781708195842785238427BD
:102B800081932F5F3F4F2530310569F7089527E086
:102B9000929F800D1124682F669566956695982FF3
:102BA000977085E0689FB001112440E050E080E01C
:102BB000FB01E40FF51FE850FE4F208130E0092EA5
:102BC00002C0369527950A94E2F721703327042E28
:102BD00001C0220F0A94EAF7822B4F5F5F4F453006
:102BE000510531F70895BF92CF92DF92EF92FF9295
:102BF0000F931F93CF93DF938C01C0902502D09049
:102C00002602E0902702F0902802809129029091FC
:102C10002A02A0912B02B0912C02C82AD92AEA2AB2
:102C2000FB2ACFE1D0E0D701C6010C2E04C0B69537
:102C3000A795979587950A94D2F780FD04C02197B0
:102C400090F7B12C07C0BC2EB8018C2F0E94E40273
:102C50000197A9F38B2DDF91CF911F910F91FF90D9
:102C6000EF90DF90CF90BF900895CF93DF93EC016A
:102C70000E94F315BE010E94E402DF91CF910895F6
:102C80001F93CF93DF93EB019091BF01992321F024
:102C9000CB010E94351613C0882349F0CB010E9456
:102CA000F315182F682FCE010E949C1504C0CB018C
:102CB0000E94C715182FBE01812F0E94E402DF91E8
:102CC000CF911F91089580912D02859585958595C9
:102CD000089580912D028770089590912D0297702C
:102CE00081E009F480E0089580913902089590917F
:102CF0003902892B80933902089580959091390289
:102D00008923809339020895109239020895909191
:102D10003802892B8093380208958095909138026B
:102D20008923809338020895109238020895909173
:102D30003702892B8093370208958095909137024E
:102D40008923809337020895109237020895809165
:102D50002E02089508950C94AA160C94AB16909127
:102D60002E02981721F080932E020C94AD16089530
:102D700080912E02882329F010922E0280E00C947C
:102D8000AD160895E0910901F0910A018091390290
:102D90008083E0910901F0910A01908180913802CD
:102DA000892B8083E0910901F0910A019081809143
:102DB0003702892B808380912E02882381F0E09155
:102DC0000901F0910A019081892B8083809109018A
:102DD00090910A010E94D51781110E94B816809126
:102DE000090190910A010C94B10B0C94AA1698E079
:102DF000899F90011124262B20932D020E94FE14FE
:102E000080912D028595859585950C94F5161092E7
:102E10002D0280E00C94F51620912D0280958223DE
:102E200080932D02982F977079F430E0482F082E68
:102E3000000C550B2417350739F085958595859538
:102E40000E941F150C940717089580E090E00E94DF
:102E5000192521E08C3E9E4F09F020E0822F089535
:102E600082E090E00C94112583E090E00C94112511
:102E7000CF9384E090E00E941125C82F81E290E07A
:102E80000E9411252C2F30E0A901582BCA01CF91A7
:102E90000895CF93C92F682F84E090E00E941F25EA
:102EA0006C2F81E290E0CF910C941F2586E090E09A
:102EB0000C941125682F86E090E00C941F25AB013F
:102EC000BC018FE090E00C943125AB01BC0183E1A3
:102ED00090E00C94312560E070E0CB010C94651714
:102EE0006CEE7EEF80E090E00E943D2560E082E0A5
:102EF00090E00E941F2560E083E090E00E941F2583
:102F00001092290210922A0210922B0210922C0287
:102F100060E084E090E00E941F2560E081E290E0A4
:102F20000E941F2560E085E090E00E941F2560E080
:102F300086E090E00E941F256FEF87E090E00E94FE
:102F40001F2540E050E0BA0188E090E00E94312562
:102F500060E08DE090E00E941F2540E050E0BA0163
:102F600088E190E00E94312560E087E190E00E94D6
:102F70001F2540E050E0BA018CE190E00E9431252D
:102F800060E080E290E00E941F2540E050E0BA013E
:102F900088E190E00E9431250C94FA010C9470179E
:102FA000682F8EE090E00C941F25FC01329697E08C
:102FB00080E0915029F021912223D9F38F5FF9CF3E
:102FC0000895662349F0FC01329608962191621714
:102FD00029F0E817F907D1F780E0089581E0089516
:102FE0009C01FC0132969FEF80E04191461789F0E9
:102FF0009F3F19F4411101C0982F8F5F8630A9F7C8
:103000009F3F39F0F901E90FF11D97FDFA956283B1
:10301000089508959C012A5F3F4FFC0142814613A9
:1030200001C01282019682179307B9F708950C9494
:10303000F0170C940A18029626E0FC0111922A95CA
:10304000E9F7089508950C9422180C942218CF9350
:103050000E9425180E9470050E942318C0E08C2F42
:103060000E94D304811104C0CF5FCA30C1F701C0F0
:1030700081E0CF9108950C9422180C943B180E9483
:103080003D1880917602843061F110923B0220E479
:1030900088E190E00FB6F894A895809360000FBE89
:1030A0002093600080E00E94BE0780E00E94BC0286
:1030B0000E943D1883B7817F846083BF83B781609E
:1030C00083BF7894889583B78E7F83BF0FB6F894BB
:1030D000A8958091600088618093600010926000E4
:1030E0000FBE08950C9422180E94A8100E94AF06EB
:1030F0000E94A50B0E94BC020C9472181F920F92A2
:103100000FB60F9211248F939F93AF93BF9380912B
:103110003B02811113C080916C0290916D02A091CD
:103120006E02B0916F024196A11DB11D80936C0299
:1031300090936D02A0936E02B0936F02BF91AF9116
:103140009F918F910F900FBE0F901F90189582E066
:1031500084BD93E095BD9AEF97BD80936E0008956E
:103160002FB7F89480916C0290916D02A0916E023D
:10317000B0916F022FBF08959C014FB7F8948091D2
:103180006C0290916D02A0916E02B0916F024FBFE0
:10319000821B930B089578941F920F920FB60F9293
:1031A00011248F939F93AF93BF9380916C02909162
:1031B0006D02A0916E02B0916F020196A11DB11D2A
:1031C00080936C0290936D02A0936E02B0936F0295
:1031D000BF91AF919F918F910F900FBE0F901F9055
:1031E000189587E797E790930108809300089AE085
:1031F00088E10FB6F894A895809360000FBE909375
:103200006000FFCF0E942517811102C00E94CE17D7
:103210000E94301780933A020E94381790937102EF
:10322000809370020E943417682F70E080E090E075
:103230000E949E14609125027091260280912702BF
:10324000909128020C94D6148091420280FF0BC00A
:103250006091100185E0689FB00111247595679514
:10326000759567952BC081FF09C06091100185E0BD
:10327000689FB00111247595679520C082FF07C033
:103280006091100185E0689FB001112417C09091F2
:1032900041029923D1F060910F01961788F7209190
:1032A000100185E0289F90011124929FA001939F17
:1032B000500D112470E0CA010E94BB2460387105D2
:1032C00040F46115710519F406C065E070E0862FC1
:1032D00008958FE7089581E008958091420280FF6C
:1032E00008C060910C0170E07595679575956795BC
:1032F00021C081FF06C060910C0170E07595679553
:1033000019C082FF04C060910C0170E010C0909160
:103310004002992399F060910B019617A0F78091D4
:103320000C01899FC001112470E00E94BB24603809
:10333000710540F46115710519F406C061E070E093
:10334000862F08958FE7089581E00895803F21F446
:103350000E942419819504C0813F29F40E942419F8
:10336000809346020895823F21F40E94241981959A
:1033700004C0833F29F40E942419809345020895D4
:10338000893F19F40E946D1905C08A3F31F40E94EB
:103390006D1981958093470208958B3F21F40E9417
:1033A0006D19819504C08C3F29F40E946D1980939A
:1033B00048020895843F21F480914402816017C03F
:1033C000853F21F480914402826011C0863F21F440
:1033D0008091440284600BC0873F21F480914402B5
:1033E000886005C0883F31F48091440280618093F9
:1033F000440208958D3F21F48091420281600BC008
:103400008E3F21F480914202826005C08F3F29F4F3
:10341000809142028460809342020895803F39F493
:103420008091460287FF6AC01092460267C0813FC2
:1034300029F4809146021816BCF360C090914502B1
:10344000823F29F497FF5AC01092450257C0833F2C
:1034500019F41916CCF352C090914702893F31F408
:1034600019160CF04BC01092470248C08A3F19F45D
:1034700097FF44C0F8CF8B3F39F48091480287FF13
:103480003DC0109248023AC08C3F29F48091480216
:103490001816BCF333C0843F21F4809144028E7F20
:1034A00017C0853F21F4809144028D7F11C0863F73
:1034B00021F4809144028B7F0BC0873F21F48091DF
:1034C0004402877F05C0883F31F4809144028F7E9B
:1034D0008093440213C08D3F21F4809142028E7F7D
:1034E0000BC08E3F21F4809142028D7F05C08F3F3B
:1034F00029F4809142028B7F8093420280914502A1
:10350000811106C080914602811102C010924102D1
:1035100080914702811106C080914802811102C04A
:103520001092400208950E94B01820914502211186
:1035300004C020914602222321F090933F02809301
:103540003E0220914702211104C02091480222230B
:1035500021F090933D0280933C0283E492E00C942E
:10356000BC0BEF92FF920F931F93CF93DF9300D08A
:1035700000D000D0CDB7DEB786E0E3E4F2E0DE01B4
:10358000119601900D928A95E1F7E0904502F09036
:103590004602009147021091480210924502109293
:1035A00046021092470210924802E11003C0FF2029
:1035B00009F45DC080913E0290913F020E94BC18C8
:1035C000AC0190914102992339F02091110130E032
:1035D0002417350758F04BC0209112018AE0289F2C
:1035E000900111242417350718F041C09F3F19F0AE
:1035F0009F5F90934102EE2061F00E9424191E14F7
:1036000014F09FEF01C091E0989F902D11249093AA
:103610004502FF2061F00E9424191F1414F09FEF4F
:1036200001C091E0989F902D112490934602309113
:1036300045023323E1F0209146022223C1F045EBFD
:103640003403C0011124992319F09093450203C05B
:1036500081E08093450235EB2303C00111249923B7
:1036600019F09093460203C081E080934602011155
:1036700003C0112309F45DC080913C0290913D028A
:103680000E94BC18AC0190914002992339F020911E
:103690000D0130E02417350758F04BC020910E0182
:1036A0008AE0289F900111242417350718F041C0A3
:1036B0009F3F19F09F5F90934002002361F00E94AA
:1036C0006D19101614F09FEF01C091E0989F902D96
:1036D000112490934702112361F00E946D19111675
:1036E00014F09FEF01C091E0989F902D11249093CA
:1036F0004802309147023323E1F02091480222230F
:10370000C1F045EB3403C0011124992319F09093C3
:10371000470203C081E08093470235EB2303C001D9
:103720001124992319F09093480203C081E08093FB
:1037300048028091450281110BC08091460281119F
:1037400007C080914702811103C080914802811116
:103750000E94931AEB82FC820D831E8386E0FE0199
:103760003196A3E4B2E001900D928A95E1F7269696
:103770000FB6F894DEBF0FBECDBFDF91CF911F9182
:103780000F91FF90EF900895E3E4F2E086E0DF010F
:103790001D928A95E9F71092410210924002109210
:1037A00042020895833081F128F4813059F082304B
:1037B000D1F00895853009F449C0B8F1863009F494
:1037C00056C0089580911201262F30E0280F311D38
:1037D0002F3F310524F4680F6093120108958FEF95
:1037E00080931201089580911101262F30E0280F57
:1037F000311D2F3F310524F4680F609311010895A6
:103800008FEF80931101089580911001262F30E0F1
:10381000280F311D2F3F310524F4680F60931001EC
:1038200008958FEF80931001089580910F01262F46
:1038300030E0280F311D2F3F310524F4680F6093CD
:103840000F0108958FEF80930F01089580910C016F
:10385000262F30E0280F311D2F3F310524F4680F4B
:1038600060930C0108958FEF80930C01089580916F
:103870000B01262F30E0280F311D2F3F310524F496
:10388000680F60930B0108958FEF80930B010895EB
:10389000833011F128F4813049F0823091F008959D
:1038A000853081F120F18630C1F1089580911201B7
:1038B000681720F4861B809312010895109212015C
:1038C000089580911101681720F4861B80931101DF
:1038D000089510921101089580911001681720F445
:1038E000861B809310010895109210010895809115
:1038F0000F01681720F4861B80930F010895109222
:103900000F01089580910C01681720F4861B8093A5
:103910000C01089510920C01089580910B01681715
:1039200020F4861B80930B01089510920B010895DB
:103930000F931F9341E050E060E070E08A019B012B
:1039400004C0000F111F221F331F8A95D2F7C9012F
:10395000B8010E949E141F910F910C94A8108B31F6
:1039600009F468C058F58B3009F486C078F48630C5
:1039700009F445C020F4853009F44BC07FC087307E
:1039800009F44AC0883009F477C078C0803109F45E
:1039900064C068F48E3009F071C080913A0282FBF5
:1039A000222720F991E0922790FB82F94CC08631C2
:1039B00009F462C0893109F45FC060C08A32E1F065
:1039C00060F4873209F455C028F48E3108F456C0EB
:1039D0008D5150C08932E9F051C0833450F48A339C
:1039E00008F045C0853309F444C0883309F444C065
:1039F00045C08334F1F142C00E94CE173DC0809192
:103A00003A02817F8E7F80933A0281E080934A025E
:103A100008950E94630230C080913A02982F9095D9
:103A2000917090FB80F980933A02911125C0897FB3
:103A3000877F10C080913A0281FB222720F991E014
:103A4000922790FB81F980933A029923A9F0809103
:103A50003A02816080933A020FC080913A0283FB60
:103A6000222720F991E0922790FB83F9ECCF89532C
:103A700001C080E00E94981C81E0089580E00895D4
:103A800080E008950C94401D8E518A3030F4E82F68
:103A9000F0E0EF56FE4F8081089580E00895CF93C7
:103AA000C82F80914A02813051F018F0823099F18C
:103AB0007DC00E947416823209F07AC004C00E9450
:103AC0007416823261F48C2F0E94421D811104C051
:103AD0008C2F0E94AF1C1DC081E090E01AC08C2F7B
:103AE0000E94401D811114C0C43179F048F4CB30DC
:103AF00079F0C03109F060C082E080934A0208C0CA
:103B0000C93219F0C83321F057C010924A0254C08C
:103B100081E0817053C0C93289F118F5C43171F167
:103B2000B0F4C73009F046C08EE18093120182E301
:103B3000809311018AE08093100184E180930F014A
:103B400088E080930C0188E280930B0133C082EE01
:103B50008C0F863078F58C2F0E94441D809349028B
:103B600029C0CE34E9F020F4CB3421F56AE013C04B
:103B7000C13579F0C235F1F461E00DC080914902A0
:103B8000882319F01092490215C081E080934A02FF
:103B900015C061E006C0809149020E94D21B0AC094
:103BA0006AE0809149020E94481C04C010924A02B7
:103BB00080E004C081E002C080E0ABCFCF910895E7
:103BC000809153020895CF93DF9300D01F92CDB719
:103BD000DEB790917602943019F589837B836A83EE
:103BE00082E08093E9008FEF9091E800815095FD8D
:103BF00006C095ED9A95F1F700008111F5CF8091FF
:103C0000E80085FF0DC040E050E063E070E0CE01C9
:103C100001960E94F91F8091E8008E778093E8005A
:103C20000F900F900F90DF91CF910895BC0184E029
:103C30000C94E31DBC0183E00C94E31D22E020936F
:103C4000E9002FEF3091E800215035FD06C035ED39
:103C50003A95F1F700002111F5CF2091E80025FFFA
:103C60000BC040E050E066E070E00E94F91F8091D8
:103C7000E8008E778093E8000895CF93DF9321E0EA
:103C80002093E9002FEF3091E800215035FD06C068
:103C900035ED3A95F1F700002111F5CF2091E800BC
:103CA00025FF14C0EC0140E050E068E070E00E94A5
:103CB000F91F8091E8008E778093E80088E0FE018C
:103CC000ABE4B2E001900D928A95E1F7DF91CF91DC
:103CD000089580917502811109C00E948A210E9475
:103CE000E7218091E20084608093E20008951092C1
:103CF00075020895089508950C94741842E061ECDB
:103D000081E00E94032142E261EC82E00C940321F5
:103D100080917802833009F460C030F4813071F012
:103D2000823009F499C008958A3009F485C08B3037
:103D300009F46BC0893009F0A7C020C080917702D8
:103D4000813A09F0A1C08091E800877F8093E80064
:103D500080917B0290917C02892B21F468E08BE4B6
:103D600092E003C060E080E090E070E00E944420B8
:103D70008091E8008B778093E80008958091770226
:103D8000813209F081C080917B0290917C02029780
:103D900008F07AC08091E800877F8093E8008091E6
:103DA000E80082FD05C0809176028111F8CF6CC0D9
:103DB0002091F3008091F20090E0922B029729F479
:103DC0008091F1008B7F813021F48091F10080930C
:103DD00053028091E8008B7753C080917702813A3B
:103DE00009F052C080917B0290917C02892B09F0EE
:103DF0004BC08091E800877F8093E8008091E800C5
:103E000080FFFCCF80911D0136C080917702813206
:103E1000D9F580917B0290917C02892BA9F5809144
:103E2000E800877F8093E8000E9438218091790222
:103E300080931D010C94A81080917702813221F5A6
:103E40008091E800877F8093E8000E94382180916C
:103E50007A0280935402089580917702813AA1F406
:103E60008091E800877F8093E8008091E80080FFE0
:103E7000FCCF809154028093F1008091E8008E770E
:103E80008093E8000C943821089584B7877F84BF1D
:103E90000FB6F894A89580916000886180936000C7
:103EA000109260000FBE90E080E80FB6F894809307
:103EB0006100909361000FBE0E940C0C0E948A2149
:103EC0000E94E7218091E20084608093E200789470
:103ED0000E947C240E94120C83E191E00E94A00BBE
:103EE00080917602853069F40E943F1880917402B7
:103EF0008823B1F30E942718882391F30E94E31FBF
:103F0000EFCF0E941C0C0E94000C0E94FF0BE8CF18
:103F10000C948A1F292F332723303105C9F060F410
:103F20002130310581F02230310509F044C08BE3A6
:103F300090E024E532E043C021323105E1F0223245
:103F4000310549F138C082E190E02FE832E037C016
:103F500099278130910549F028F0029761F5E4E155
:103F6000F2E005C0E0E5F2E002C0E0E4F2E08491B6
:103F700090E09F0124C06115710541F06130710529
:103F8000D1F489E090E02FE732E019C089E090E0B9
:103F900026E632E014C06115710541F0613071050B
:103FA00051F481E890E021EA32E009C080E490E039
:103FB00022E233E004C080E090E020E030E0FA014B
:103FC00031832083089580E189BD82E189BD09B4F0
:103FD00000FEFDCF8091D8008F7D8093D800809126
:103FE000E00082608093E0008091E00081FDFCCFE2
:103FF0000895CF92DF92EF92FF920F931F93CF938A
:10400000DF93EC018B017A010E945721811133C0AB
:10401000E114F10439F0F70180819181081B190B3B
:10402000C80FD91FC12CD12C0115110519F1809190
:10403000E80085FD16C08091E8008E778093E80047
:10404000E114F10449F0F70180819181C80ED91E75
:10405000D182C08285E00FC00E945721882321F3BE
:104060000AC089918093F10001501109FFEFCF1A26
:10407000DF0ADACF80E0DF91CF911F910F91FF909F
:10408000EF90DF90CF90089520917D0230917E02D5
:104090002617370748F06115710539F42091E800BB
:1040A0002E772093E80001C0B901FC0120E06115E2
:1040B000710579F1809176028823F1F18530F1F173
:1040C0008091E80083FD3CC08091E80082FD2EC015
:1040D0008091E80080FFEBCF2091F3008091F20007
:1040E00090E0922B6115710551F08830910538F4FC
:1040F00021912093F100615071090196F3CF21E0E5
:10410000089709F020E08091E8008E778093E8001E
:10411000CECF2111CFCF0AC080917602882361F0E3
:10412000853061F08091E80083FD0AC08091E8004D
:1041300082FFF2CF80E0089582E0089583E0089541
:1041400081E0089520917D0230917E022617370785
:1041500048F06115710539F42091E8002E7720931D
:10416000E80001C0B901FC0120E06115710591F181
:1041700080917602882309F440C0853009F43FC05D
:104180008091E80083FD3DC08091E80082FD2FC052
:104190008091E80080FFE9CF2091F3008091F20048
:1041A00090E0922B6115710559F08830910540F42B
:1041B00024912093F1003196615071090196F2CF5C
:1041C00021E0089709F020E08091E8008E77809345
:1041D000E800CBCF2111CCCF0AC080917602882392
:1041E00061F0853061F08091E80083FD0AC0809124
:1041F000E80082FFF2CF80E0089582E0089583E036
:10420000089581E00895982F973068F59093E9001C
:10421000981739F07091EC002091ED005091F0006A
:1042200003C0242F762F50E021FD02C09F5FECCF0A
:104230003091EB003E7F3093EB003091ED003D7FFD
:104240003093ED003091EB0031603093EB007093D0
:10425000EC002093ED005093F0002091EE0027FD3C
:10426000E5CF80E008958F708093E90081E00895A4
:104270008091770287FF11C08091E80082FD05C020
:10428000809176028111F8CF11C08091E8008B7780
:104290000BC080917602882349F08091E80080FF6E
:1042A000F8CF8091E8008E778093E8000895209100
:1042B000E4003091E50095E64091EC00842F817098
:1042C00040FF23C08091E80080FD1DC080917602F0
:1042D000882399F0853099F08091EB0085FD11C01D
:1042E0004091E4005091E5002417350729F39150DF
:1042F00011F09A01E1CF84E0089582E0089583E00F
:10430000089581E0089580E008954091E80042FF1B
:10431000DDCF08950E94F8210E940022E0EEF0E037
:10432000808181608083E8EDF0E080818F778083F9
:1043300019BCA7EDB0E08C918E7F8C9380818F7E2D
:1043400080831092750208950F931F93CF93DF938C
:104350000E94F8210E940022C8EDD0E088818F776A
:10436000888388818068888388818F7D888319BC51
:1043700010927602109272021092740210927302DE
:1043800000EE10E0F80180818B7F8083888181605E
:10439000888342E060E080E00E940321E1EEF0E0EB
:1043A00080818E7F8083E2EEF0E080818160808377
:1043B000808188608083F80180818E7F80838881FE
:1043C00080618883DF91CF911F910F910895E8ED6F
:1043D000F0E080818F7E8083E7EDF0E08081816076
:1043E000808384E082BF81E0809375020C94A421D5
:1043F000E8EDF0E080818E7F80831092E2000895E6
:104400001092DA001092E10008951F920F920FB6F9
:104410000F9211242F933F934F935F936F937F934A
:104420008F939F93AF93BF93EF93FF938091E1009E
:1044300082FF0BC08091E20082FF07C08091E10003
:104440008B7F8093E1000E947B248091DA0080FFC3
:104450001FC08091D80080FF1BC08091DA008E7F42
:104460008093DA008091D90080FF0DC080E189BD82
:1044700082E189BD09B400FEFDCF81E08093760220
:104480000E94691E05C019BC109276020E94771E18
:104490008091E10080FF19C08091E20080FF15C08B
:1044A0008091E2008E7F8093E2008091E200806143
:1044B0008093E2008091D80080628093D80019BC7C
:1044C00085E0809376020E947B1E8091E10084FF4C
:1044D00030C08091E20084FF2CC080E189BD82E180
:1044E00089BD09B400FEFDCF8091D8008F7D8093F7
:1044F000D8008091E1008F7E8093E1008091E200FE
:104500008F7E8093E2008091E20081608093E200E0
:1045100080917202882311F084E007C08091E3004B
:1045200087FD02C081E001C083E0809376020E9493
:104530007C1E8091E10083FF29C08091E20083FF0F
:1045400025C08091E100877F8093E10082E0809325
:104550007602109272028091E1008E7F8093E100DA
:104560008091E2008E7F8093E2008091E200806182
:104570008093E20042E060E080E00E9403218091AD
:10458000F00088608093F0000E947A1EFF91EF9106
:10459000BF91AF919F918F917F916F915F914F915B
:1045A0003F912F910F900FBE0F901F9018951F9263
:1045B0000F920FB60F9211242F933F934F935F9357
:1045C0006F937F938F939F93AF93BF93CF93DF931B
:1045D000EF93FF93C091E900CF708091EC00D82F4A
:1045E000D17080FDD0E81092E9008091F000877FC3
:1045F0008093F00078940E941B231092E900809130
:10460000F00088608093F000CD2BCF70C093E9005C
:10461000FF91EF91DF91CF91BF91AF919F918F91DA
:104620007F916F915F914F913F912F910F900FBEAE
:104630000F901F9018951F93CF93DF93CDB7DEB7E0
:10464000AA970FB6F894DEBF0FBECDBFE7E7F2E042
:104650008091F100819322E0EF37F207C9F70E94C1
:10466000881E8091E80083FF2EC18091770290918F
:104670007802492F50E04A30510508F024C1FA0170
:10468000EC58FF4F0C94F124803821F0823809F067
:104690001AC108C08091730290917402992389F025
:1046A00082600FC080917B028F70873008F00BC151
:1046B0008093E9008091EB0085FB882780F91092B8
:1046C000E9009091E800977F9093E8008093F100D3
:1046D0001092F100D1C0282F2D7F09F0F4C088235B
:1046E00019F0823061F0EFC080917902813009F0D9
:1046F000EAC0933009F080E0809374022EC080916C
:10470000790281112AC080917B028F702FEF280FD0
:10471000263008F0D8C08093E9002091EB0020FFFC
:104720001CC0933021F48091EB00806214C0909102
:10473000EB0090619093EB0021E030E0A90102C012
:10474000440F551F8A95E2F74093EA001092EA0061
:104750008091EB0088608093EB001092E9008091DB
:10476000E800877F8093E8000E943821ACC0811167
:10477000AAC0109179021F778091E3008078812B85
:104780008093E3008091E800877F8093E8000E9497
:1047900038218091E80080FFFCCF8091E3008068A1
:1047A0008093E300111102C082E001C083E0809396
:1047B000760289C08058823008F085C080917902E5
:1047C00090917A028C3D53E0950779F583E08A83D6
:1047D0008AE289834FB7F894DE01139620E03EE029
:1047E00051E2E32FF0E050935700E49120FF03C023
:1047F000E295EF703F5FEF708E2F90E0EA3010F09F
:10480000C79601C0C0968D939D932F5F243149F7C1
:104810004FBF8091E800877F8093E8006AE270E0F4
:10482000CE0101960E94442016C060917B027091D7
:104830007C02AE014F5F5F4F0E94881FBC01892B35
:1048400009F441C09091E800977F9093E800898136
:104850009A810E94A2208091E8008B778093E800E3
:1048600032C0803881F58091E800877F8093E8002E
:10487000809172028093F1008091E8008E7772CF70
:10488000811121C08091790290917A029927029733
:10489000D4F48091E800877F8093E80080917902CA
:1048A000809372020E94382180917202811106C0A9
:1048B0008091E30087FD02C081E001C084E0809325
:1048C00076020E947E1E8091E80083FF0AC08091DC
:1048D000E800877F8093E8008091EB0080628093FE
:1048E000EB00AA960FB6F894DEBF0FBECDBFDF91E6
:1048F000CF911F9108950895CF93809176028823D8
:10490000A1F0C091E900CF709091EC00892F8170E7
:1049100090FD80E8C82B1092E9008091E80083FDAB
:104920000E941B23CF70C093E900CF910895DB0153
:104930008F939F930E940625BF91AF91A29F800DF8
:10494000911DA39F900DB29F900D11240895AA1B55
:10495000BB1B51E107C0AA1FBB1FA617B70710F06A
:10496000A61BB70B881F991F5A95A9F7809590959C
:10497000BC01CD01089597FB072E16F4009407D0D3
:1049800077FD09D00E94A72407FC05D03EF490953E
:1049900081959F4F0895709561957F4F0895A1E28D
:1049A0001A2EAA1BBB1BFD010DC0AA1FBB1FEE1FA9
:1049B000FF1FA217B307E407F50720F0A21BB30BF4
:1049C000E40BF50B661F771F881F991F1A9469F770
:1049D00060957095809590959B01AC01BD01CF01CC
:1049E0000895EE0FFF1F0590F491E02D0994A29F0A
:1049F000B001B39FC001A39F700D811D1124911DB3
:104A0000B29F700D811D1124911D08950E94F724FD
:104A1000A59F900DB49F900DA49F800D911D112412
:104A20000895F999FECF92BD81BDF89A992780B576
:104A30000895A8E1B0E042E050E00C944525262F0F
:104A4000F999FECF92BD81BDF89A019700B4021684
:104A500039F01FBA20BD0FB6F894FA9AF99A0FBE32
:104A600008950396272F0E9420250E941F25252F99
:104A70000E942025242F0C9420250196272F0E9488
:104A800020250C941F25DC01CB01FC01F999FECFF8
:104A900006C0F2BDE1BDF89A319600B40D924150C6
:0A4AA0005040B8F70895F894FFCFD6
:104AAA0001A10101A20105A3012F022808641E1415
:104ABA000A321EE01D3D1E1E1E1A1E161E01E200AF
:104ACA00E900EA00B500B600B700CD008301CC00CA
:104ADA008A0192019401210223022402250226025C
:104AEA0027022A02B300B4006F007000818283F4A7
:104AFA00F5F6F73133329497C634350000000000DA
:104B0A00E200E900EA00B500B600B700CD00830173
:104B1A00CC008A0192019401210223022402250277
:104B2A00260227022A02B300B4006F0070008182B5
:0C4B3A00830102030405060708090000BF
:00000001FF
