:100000000C949E010C94E2010C94FD010C94E2010D
:100010000C94E2010C94E2010C94E2010C94E201D4
:100020000C94E2010C94E2010C948A160C94E20107
:100030000C94E2010C94E2010C94E2010C94E201B4
:100040000C94E2010C94E2010C94E2010C94E201A4
:100050000C94E2016B0C6B0C9D0C9D0CEA0C1E0EBB
:100060001E0E1E0E080D9D0DAE0DAE0D0E0E1E0EBB
:100070001E0E170EBA0EBA0ECC0ECC0EC30ECC0E40
:10008000CC0ECC0EBA0EBA0EC80ECC0ECC0EC80ECC
:10009000290000003A003B003C003D003E003F00CC
:1000A000400041000000420043004400450046007B
:1000B0004700480035001E001F00200021002200DC
:1000C000230024002500260027002D002E002A00F2
:1000D000000049004A004B002B0014001A000800E1
:1000E000150017001C0018000C00120013002F0050
:1000F0003000310000004C004D004E00390004007B
:100100001600070009000A000B000D000E000F008A
:100110003300340000002800000000000000000050
:10012000E1001D001B000600190005001100100071
:1001300036003700380000000000E5000000000035
:1001400052000000E000E300E200000000000000B8
:100150002C0000000000E600E70000000151000054
:10016000E400500051004F00A50000006800690045
:100170006A006B006C006D006E006F000000700084
:100180007100720073000000000000000000000019
:10019000000000000000000000000000000000005F
:1001A000000000000000000000000000000000004F
:1001B000000000000000000000000000000000003F
:1001C000000000000000000000000000000000002F
:1001D000000000008200000000000000000000009D
:1001E000000000000000000000000000000000000F
:1001F00000000000000000000000000000000000FF
:1002000000000000000000000000000000000000EE
:100210000000000000000000A90000000000065CD3
:1002200000000000000000000000000000000000CE
:100230000F5C0000000000000000AC00AA00AB0052
:1002400009023B00020100A0FA09040000010301B9
:100250000100092101010001224000070581030876
:10026000000109040100010300000009210101004F
:10027000012232000705830308000112011001006A
:10028000000008626B698701000102000114034D40
:100290000059005300540045005200490055004DDC
:1002A000000000200363006F0073006500790066A2
:1002B0000061006E006E00690074007500740074C7
:1002C00000690000000403090405010980A10185FB
:1002D0000319012AB700150126B700950175108191
:1002E00000C0050C0901A101850419012AA002150D
:1002F0000126A002950175108100C005010906A123
:1003000001050719E029E715002501950875018108
:10031000029501750881030507190029FF150026BC
:10032000FF00950675088100050819012905950546
:1003300075019102950175039103C00011241FBE40
:10034000CFE5D8E0DEBFCDBF04B603FE24C0809168
:10035000C6029091C702A091C802B091C90287302D
:10036000904BA740B04BB9F41092C6021092C7024E
:100370001092C8021092C90214BE84B7877F84BF4E
:100380000FB6F894A89581B5886181BD11BC0FBEE8
:10039000E0E0F8E3099510E0A0E6B0E0EAE9F4E374
:1003A00002C005900D92A83EB107D9F722E0A8EE51
:1003B000B0E001C01D92A63CB207E1F70E94001711
:1003C0000C944B1A0C940000A82FB92F80E090E0F9
:1003D00041E050EA609530E009C02D918227979561
:1003E000879510F084279527305EC8F36F5FA8F3D8
:1003F0000895EADF8D939D930895CF93CFB7CF9360
:10040000DF93C395839BE9F7839B10C0839B0EC04A
:10041000839B0CC0839B0AC0839B08C0839B06C040
:10042000C0919D02C395C0939D028EC06F93C091F1
:100430009C02DD27CC55DD4F2F9365E5839B03C0E0
:100440002F916F91E1CF0F931F934F9320E040E1E5
:100450005F9300B30C7003FB27F93F9350E03BE040
:1004600039C01C7040642F77012F5F5F1EC0406849
:1004700010B31C702F7752501FC0406400B32F7709
:100480000C70D1F15F5F00C023C0406210B32F77C2
:100490001C7091F15F5F00C025C00C701027515097
:1004A00012F45D5F0000115027952C3F10B3C8F681
:1004B0001C700127015027952C3FC8F6422749930D
:1004C00000B30C7010274F73115027952C3FA8F6DE
:1004D0004695469510B31C7079F001270150279579
:1004E0002C3F98F66B5A60F3315000B3B0F600C061
:1004F00010E81ABF00271CC03B503195C31BD040E9
:1005000010E81ABF0881033C21F10B3411F120914E
:1005100099021981110F1213EDCF4A81441F093638
:1005200079F10D3211F0013E29F74F7009F0042FD7
:100530000093A2023F915F914F911F910F912F91D4
:100540006F91CAB7C7FD5DCFDF91CF91CFBFCF917C
:1005500018952091A202222369F31091A002112381
:1005600009F049C034300AF448C03093A002209307
:100570009B0210919C023BE0311B30939C023DC0DA
:100580000091A0020130BCF50AE54F7049F43091AA
:100590006D0034FD33C000936D00C6E7D2E032C079
:1005A000433059F0443091F03091810234FD26C03F
:1005B00000938102C2E8D2E025C03091BA0234FD36
:1005C0001DC00093BA02CBEBD2E01CC030918D026B
:1005D00034FD14C000938D02CEE8D2E013C005278D
:1005E00010E000C0000002BB1AC0052710E0221F67
:1005F0001DC010E021C04AE502C032ED432FC4E126
:10060000D0E032E011B31C60939A02B311BB5CE0FE
:1006100020E865E320FF052702BB279517951C3FBF
:10062000F0F66695B8F7B1F720FF052702BB2795CE
:1006300017951C3FD0F62795179517FF0527000043
:100640001C3F02BBB0F629913A9519F7037F109130
:10065000A102110FC651D04002BB11F010939902B4
:1006600010E81ABF086011B3137F402F437F54E096
:100670005A95F1F702BB11BB42BB5CCF81E00895F4
:1006800081E008950C94400308950C9444031F9353
:10069000CF93DF9300D000D01F92CDB7DEB7498350
:1006A0005A836B833091180189819A81311114C06A
:1006B000662359F0222349F00E94F313182F682F64
:1006C00089819A810E949C1303C00E94C713182F2E
:1006D00069817A81812F04C00E94F31369817A8134
:1006E0000F900F900F900F900F90DF91CF911F916F
:1006F0000C94FB03FC01262F4081518162817381A0
:1007000084810C944703CF93DF93EC0160E00E9457
:100710007A03BE01DF91CF910C9445030E94CA1663
:100720000E942D15811102C00E94D4150C941B0645
:100730000C94170608950E94A80E0E949A032FEFAA
:1007400084E39CE0215080409040E1F700C000002D
:100750000C94B0160F931F93CF93DF93EC0161E0DD
:100760000E947A038C01BE010E944203882349F152
:10077000BE01C8010E94B907882319F1BE01C80152
:100780000E940B088823E9F0BE01C8010E943609C7
:100790008823B9F08A81882369F001158CE5180750
:1007A00031F00F3D1C4531F40E94D4150AC00E945F
:1007B0009B0307C0CE01DF91CF911F910F910C9445
:1007C0003E0380E0DF91CF911F910F91089508952E
:1007D0000C94E70381E008950C94EA03CF93C82FAB
:1007E0000E94E8038C2F0E94EC03CF91089580E0D3
:1007F00090E0089508952CE6829FC0011124FC0129
:1008000022E1729FE00DF11D1124E60FF11DEE0FA4
:10081000FF1FE057FF4F859194910895880F991F0E
:10082000FC01E05CFD4F859194910895CF93DF9397
:100830000E94FB030E942805EC018115904508F0F9
:1008400043C0C11580E4D80708F0CBC0C03ED10535
:1008500028F5C03CD10508F0B3C0C83AD10578F4FA
:10086000C53AD10508F0A4C0C130D10509F4ECC0E7
:1008700008F4E8C0C430D10508F0E6C0E3C0CF3BBF
:10088000D10508F0DFC0C85AD0E0CC0FDD1FC25937
:10089000DF4F0990D881C02DD464D6C0C11590E235
:1008A000D90750F4C11521E0D20708F0CDC0C83EE9
:1008B000D10508F4C9C0C6C0C11580E3D80708F047
:1008C00086C0CE019F707FC0C11595E5D90708F09D
:1008D00043C0C11524E5D20708F09AC0C11582E5CE
:1008E000D80708F5C11591E5D90708F07DC0CE01FC
:1008F00074E0969587957A95E1F783709C2F9370B5
:1009000021E030E002C0220F331F9A95E2F73C68E5
:10091000382BCF70C695C69580E2C89FE0011124A0
:10092000C22BD32B91C09E01237033278C2F869529
:100930008695C115D34508F05CC0C1E0D0E002C087
:10094000CC0FDD1F2A95E2F720E2829FC00111241F
:10095000C82BD92BDC6878C0C11529E5D207A0F4D3
:10096000C11588E5D80708F058C0C11596E5D90724
:1009700008F068C08C2F0E94BC058F71C82FD0E092
:10098000DC2FCC27D06260C0C1152AE5D20708F45D
:1009900049C0CE0190568115904208F053C08D2F6A
:1009A0008F710E94BC05DD27D0628F71D82B4CC09F
:1009B000C55AD0E0C456DF4FC881D0E0D06444C0EF
:1009C000CE01805C91090E940E04EC013DC0CE0175
:1009D0009927D3FF03C0EC01D86C36C0EC01D06C72
:1009E00033C0DF70D06A30C0DC2FCC27C16FD06A33
:1009F0002BC0C1E0D0E002C0CC0FDD1F2A95E2F78A
:100A000020E2829FC0011124C82BD92BDA681CC0B8
:100A1000DC2FCC27C46FD06A17C0DC2FCC27C06F67
:100A2000D06A12C08C2F8F700E94BC0594E0D695BE
:100A3000C7959A95E1F7CF70D0E0DC2FCC27D0692D
:100A4000C82B02C0C0E0D0E0CE01DF91CF91089565
:100A50008238910569F1B0F48133910509F46DC0D4
:100A600048F48932910509F463C08A32910509F48A
:100A700069C008958533910509F455C089339105FE
:100A8000B9F00895833E910569F138F4803E9105EF
:100A9000B1F0823E910509F10895863E9105A9F1D4
:100AA000873E9105B9F1843E910509F064C023C0E9
:100AB0002091740220FD4FC021FD4DC0089580910A
:100AC000740280FD44C08091750280FF44C0809113
:100AD000740284FD42C083EE4DC08091740282FF97
:100AE00038C0F5CF8091740282FD33C080917502C9
:100AF00080FD31C0ECCF8091750281FF32C08091C2
:100B0000740284FD2AC087EE35C08091740283FF91
:100B100026C0F5CF8091740283FD21C080917502BB
:100B200081FD1FC0ECCF8091740285FD1CC01DC0EB
:100B30008091740285FD19C016C08091740286FDF3
:100B400016C017C08091740286FD13C010C089E3DF
:100B500011C082EE0FC080EE0DC080E00BC086EEAB
:100B600009C084EE07C089E205C085E303C08AE2BC
:100B700001C081E390E008959091740292FF0DC04E
:100B8000282F2871283019F4877F846006C0282F09
:100B90002471243011F48B7F886093FF0DC0282FBF
:100BA0002871283119F4877E846106C0282F2471AA
:100BB000243111F48B7E88612091750220FF0DC0D5
:100BC000382F3871383019F4877F816006C0382F8C
:100BD0003171313011F48E7F886021FF0DC0282FD4
:100BE0002871283119F4877E816106C0282F217170
:100BF000213111F48E7E886194FD877E089524E072
:100C0000829FC0011124FC01E85AFD4F608171816F
:100C1000828193810895089580EA8A95F1F7089575
:100C200000C008950C940C0608950C9414060C94BE
:100C300015060C9414060C941906F894E82FE29506
:100C4000EF70F0E031A9282F2F7081E090E001C013
:100C5000880F2A95EAF7982F9095932391AB92A944
:100C6000892B82AB78940895CF93DF93C1EBD0E0CA
:100C700089910E941D0680E0C73BD807C9F7CFE9DC
:100C8000D0E089910E941D0680E0C13BD807C9F7DA
:100C9000E0E4F2E0A8E5B2E088E592E0119211927A
:100CA000119211921D921D921D921D928E179F07F7
:100CB000A9F786E00E940907DF91CF910C948E037B
:100CC0002F923F924F925F926F927F928F929F925C
:100CD000AF92BF92DF92EF92FF920F931F93CF9349
:100CE000DF9300E412E041EBE42E40E0F42EC0E09C
:100CF000D0E0D12C1701F7018081F894E82FE2951C
:100D0000EF70F0E021A98F7088248394912C02C0A9
:100D1000880C991C8A95E2F7C401922F982B91AB0D
:100D200092A98095892382AB78940E941006AFE93E
:100D3000B0E080E090E0412C512C32015D91E52F34
:100D4000E295EF70F0E020A930E05F7002C03595C9
:100D500027955A95E2F720FD0FC0812C912C540164
:100D60008394082E04C0880C991CAA1CBB1C0A94EE
:100D7000D2F7B501A40103C040E050E0BA01442A13
:100D8000552A662A772A019682319105B9F64FEFE6
:100D9000E41AF40AF10180810E941D06C530D105D4
:100DA00011F00E941206F80180819181A281B38125
:100DB000481659066A067B0631F0408251826282EB
:100DC000738281E001C080E0D82A21960C5F1F4F1A
:100DD000C630D10509F08ECF2D2D46E068E572E0D2
:100DE00080E492E00E940A070E9498038D2DDF9113
:100DF000CF911F910F91FF90EF90DF90BF90AF9038
:100E00009F908F907F906F905F904F903F902F902A
:100E100008950895FF920F931F93CF93DF93F82EB9
:100E2000D92F8B01C42F222349F081E08093EC005D
:100E30000E9463169093EB008093EA008091EC008F
:100E40008823F1F08091EA009091EB000E947B16DC
:100E50000697B0F0EF2DFD2FD80180E090E04C2FE9
:100E600050E08417950754F401911191219131912B
:100E70000D931D932D933D930196F3CF1092EC00AB
:100E8000DF91CF911F910F91FF9008950F931F93C2
:100E9000CF93DF93C42FD22FFC0182818823C9F026
:100EA0004093EF000E9463169093EE008093ED0054
:100EB00080E28C0F883008F057C0C77081E001C015
:100EC000880FCA95EAF7DF91CF911F910F910C948B
:100ED0002A0C8091EF00481330C08091ED00909172
:100EE000EE000E947B16883C910538F510E21D0F3C
:100EF000CD17B9F080E28C0F883040F4C77081E0E4
:100F000001C0880FCA95EAF70E94310C183028F505
:100F100081E09D2F977001C0880F9A95EAF70E9493
:100F20002A0C802F0E94210C1830F0F4D77081E039
:100F300001C0880FDA95EAF70AC080E28C0F88308A
:100F400098F4C77081E001C0880FCA95EAF7DF9175
:100F5000CF911F910F910C94310C802FDF91CF9185
:100F60001F910F910C94210CDF91CF911F910F9144
:100F700008950F939C01CB01243F4CE5340731F1D8
:100F800088F4293DFCE53F07D9F02A3D4CE53407BC
:100F900079F1283D3C45A9F506E221EE41EE68EDE8
:100FA0007CE52BC0263FFCE53F07E1F0A8F0273F9A
:100FB0003C4539F507E225EE46EE67EF7CE51DC0BE
:100FC00007E225EE45EE69ED7CE517C006E221EE6D
:100FD00040EE64EF7CE511C007E225EE44EE65EFDC
:100FE0007CE50BC006E221EE42EE66EF7CE505C033
:100FF00008E221E045EE6AED7CE50E94460780E0CC
:1010000008C0FC018281882319F01092EF0001C012
:1010100081E00F910895CF93DF93EC01FB01828172
:10102000882309F41FC1C230FCE5DF0708F41BC1A7
:10103000C6319CE5D90738F09E012B5F3C4529302D
:10104000310508F010C10E944015909375028093FD
:101050007402C031ECE5DE0709F4C3C008F041C0FA
:10106000C8308CE5D80709F49AC0F0F4C430ECE538
:10107000DE0709F487C068F4C2308CE5D80709F4AC
:1010800077C0C330DC4509F0E3C080917402826010
:1010900076C0C630ECE5DE0709F46EC008F07BC010
:1010A0008091740288606BC0CC308CE5D80709F45D
:1010B00085C068F4CA30ECE5DE0709F474C008F0B6
:1010C00079C00E94A80E80917402806858C0CE300A
:1010D0008CE5D80709F476C008F07FC080917402CF
:1010E0008BC0CC3FECE5DE0709F44FC018F5C331E7
:1010F0008CE5D80709F47DC078F4C131ECE5DE0752
:1011000009F473C0C231DC4509F0A2C00E94A80EE8
:10111000809174028F7733C0C5318CE5D80709F40C
:1011200072C008F486C0CB3FDC4509F091C08091C5
:1011300075023EC0C115FDE5DF0709F45FC058F434
:10114000CE3F9CE5D90709F444C008F43FC0809124
:10115000750282602DC0C230FDE5DF0709F475C05D
:1011600008F45DC0C330DD4509F072C080E06EC098
:1011700080917402816003C08091740280618093C9
:10118000740266C08091740211C080917502826001
:10119000809375025DC0809174028062F0CF80916F
:1011A00074028064ECCF8091740288608460E7CF21
:1011B0008160EECF809174028E7FE1CF80917402C6
:1011C0008D7FDDCF80917402877FD9CF80917502AA
:1011D00018C0809175028D7FDBCF809174028F7E65
:1011E000CECF809174028F7DCACF809174028F7BA5
:1011F000C6CF80917402877F8B7FC1CF80917502AB
:101200008D7F8E7FC5CF8091740282FB222720F9CB
:1012100091E0922790FB82F990FB83F9B0CF809107
:101220007502982F909591708E7F892B90FB81F994
:10123000AFCF0E94A80E8091740287FB222720F96D
:1012400091E0922790FB87F99ACF81E00E94D61512
:1012500080917402909175020E9451150E94A80E0F
:1012600080E001C081E0DF91CF910895CF93DF93BB
:1012700086319C4541F5EB010E947414982F8A81B8
:101280002091600030916100882379F09A7A81E0A2
:1012900009F480E08093F000911102C069E201C07E
:1012A00065E3C9010E941D160AC08091F0008111FA
:1012B00002C069E201C065E3C9010E941F160E94D5
:1012C000C21480E001C081E0DF91CF910895909336
:1012D000F6008093F5000895E091F500F091F60096
:1012E000309721F00190F081E02D099480E008957D
:1012F000E091F500F091F600309721F00280F38143
:10130000E02D099408952091F3003091F4002817FE
:10131000390771F09093F4008093F300E091F500A9
:10132000F091F600309721F00680F781E02D0994C6
:1013300008952091F1003091F2002817390771F0DB
:101340009093F2008093F100E091F500F091F600A7
:10135000309721F00084F185E02D099408950E94D2
:101360006F1660931401709315018093160190938A
:1013700017016093100170931101809312019093F3
:101380001301089584B7806884BF84B7806884BFE0
:10139000089581E008950C94C90908950C94CD092D
:1013A0000C94CD090C94D0090C94CD090C94D4095B
:1013B0000C94CD090E94C20985E295E10E94C316F2
:1013C0000E94D8090C94D6090E945C160E9434062B
:1013D0000E94DE160C94D2092F923F924F925F9298
:1013E0006F927F928F929F92AF92BF92CF92DF9235
:1013F000EF92FF920F931F93CF93DF93CDB7DEB79A
:101400002C970FB6F894DEBF0FBECDBF0E94CE0959
:101410000E94CD090E94600681110E94AF0988EFE9
:1014200090E09C878B8700E010E0302E802F0E9498
:10143000FF052B013C01EB85FC8581919191A191E8
:10144000B191FC87EB875301420188269926AA2691
:10145000BB2681149104A104B104B1F40F5F1F4FA6
:101460000630110511F78FEF89838A831B820E9452
:1014700063168160782F9D838C8349815A816B81AB
:101480008D810E94CF0A4EC08091AC0181FD0E94E7
:101490000B06212CC12CD12C7601C394D501C4019B
:1014A0008C219D21AE21BF21892B8A2B8B2B89F189
:1014B0000E94CB098823C9F02E823F824C205D20F8
:1014C0006E207F2081E045284628472809F480E0E7
:1014D00088870E9463168160782F9A8789874E815A
:1014E0005F8168858A850E94CF0A000F111F000F57
:1014F000111FF801E850FF4F80819181A281B381D3
:10150000C826D926EA26FB26C082D182E282F3824F
:1015100009C02394CC0CDD1CEE1CFF1CF2E12F1241
:10152000BDCF9CCF0E946C099091F7008917F1F014
:101530000E946C098093F7002C960FB6F894DEBFDA
:101540000FBECDBFDF91CF911F910F91FF90EF9014
:10155000DF90CF90BF90AF909F908F907F906F90D3
:101560005F904F903F902F900C94EE032C960FB607
:10157000F894DEBF0FBECDBFDF91CF911F910F91C9
:10158000FF90EF90DF90CF90BF90AF909F908F90A3
:101590007F906F905F904F903F902F900895DF92D3
:1015A000EF92FF920F931F93CF93DF93CDB7DEB7E8
:1015B0002B970FB6F894DEBF0FBECDBFF42E052FCC
:1015C000162FE72ED82E61110E949414FE01319639
:1015D00086E0DF011D928A95E9F77E2D4F2D502F71
:1015E000612F8D2D9E810E9461112B960FB6F8946C
:1015F000DEBF0FBECDBFDF91CF911F910F91FF9046
:10160000EF90DF900895FC01808191810E94351454
:101610000895CF93882309F49CC0C82F8238C1F461
:101620000E946C0981FD95C069E3809160009091F2
:1016300061000E941D160E94C2142FEF81EE94E0FB
:10164000215080409040E1F700C0000069E319C0DC
:10165000833801F50E946C0980FD7BC063E58091B1
:101660006000909161000E941D160E94C2142FEF2D
:1016700081EE94E0215080409040E1F700C00000EE
:1016800063E580916000909161000E941F16CF91E8
:101690000C94C2148438C1F40E946C0982FD59C0B4
:1016A00067E480916000909161000E941D160E9485
:1016B000C2142FEF81EE94E0215080409040E1F77A
:1016C00000C0000067E4DDCF8CEF8C0F813AD0F4CE
:1016D0006C2F80916000909161000E94E715882333
:1016E00049F06C2F80916000909161000E941F165C
:1016F0000E94C2146C2F80916000909161000E9442
:101700001D16C5CF80E28C0F883048F4C77081E089
:1017100001C0880FCA95EAF70E947714B8CFEBE5AD
:10172000EC0FE33040F4F0E0EB51FF4F808190E0AC
:10173000CF910C948309C85AC73158F4EC2FF0E0CC
:10174000EE0FFF1FE954FF4F80819181CF910C94E0
:101750009909CF910895882309F45BC0682F8238D6
:1017600079F40E946C0981FF54C069E380916000A4
:10177000909161000E941D160E94C21469E310C07E
:101780008338B1F40E946C0980FF43C063E5809107
:101790006000909161000E941D160E94C21463E5D2
:1017A00080916000909161000E941F160C94C214F9
:1017B000843879F40E946C0982FF2BC067E4809121
:1017C0006000909161000E941D160E94C21467E49F
:1017D000E7CF8CEF860F813A18F380E2860F8830CE
:1017E00048F4677081E001C0880F6A95EAF70E94AB
:1017F0007D14DCCF8BE5860F833020F480E090E011
:101800000C948309685A673120F480E090E00C94CE
:10181000990908951F93CF93DF93182FEB010E942E
:10182000090B209741F08FE99FE00197F1F700C085
:1018300000002197F6CF812FDF91CF911F910C945B
:10184000AB0B893319F060E070E002C060E570E036
:101850000C940A0C882321F00E9477140C94C21473
:101860000895882321F00E947D140C94C2140895D9
:10187000CF92DF92EF92FF920F931F93CF93DF935C
:101880007C01062FC72FFC01D281158112951F7094
:101890000E946D14882399F0DD2389F08C2F807FBE
:1018A000803421F080E2800F883048F082E00E948E
:1018B0000C150E946D1491E0D82ED92601C0D12CB0
:1018C000CC2EC2948FE0C8228C2D90E0FC01E65D06
:1018D000FF4F0C94041A8C2F807FCF70882311F057
:1018E000C295C07FDD2399F0CC2309F482C180E248
:1018F000800F883010F0011104C08C2F0E947714E3
:1019000003C08C2F0E9487140E94C21472C1802FC2
:101910000E94AB0BCC2309F491C180E2800F883088
:1019200010F0011104C08C2F0E947D1403C08C2F75
:101930000E948D140E94C21481C18C2F807FCF70B1
:10194000803211F0C295C07F002319F00130C9F038
:1019500022C0DD2371F0112341F0113031F40E94D7
:10196000A7148C2B0E94AF1469C10E94A7148C2B62
:101970001DC0112319F0113009F460C10E94B81480
:1019800025C0DD2321F0163008F058C10EC01530F7
:1019900008F054C11BC0DD2361F0112331F0F701C1
:1019A000858180FF26C18F7085838C2F0E942A0C31
:1019B00045C1112359F0093309F02CC1FFEF27EE7F
:1019C00083E0F15020408040E1F722C18C2F0E943B
:1019D000310C34C18C2F86958695837019F0813037
:1019E00061F02CC1DD2321F0802F9C2F937002C069
:1019F00080E090E00E94830929C1DD2321F0802F3F
:101A00009C2F937002C080E090E00E9499091EC153
:101A10008C2F837009F045C0D11114C1402F42951D
:101A200046954770440F440F602F6F70862F90E0EB
:101A3000A0E0B0E0042E04C0880F991FAA1FBB1FAE
:101A40000A94D2F704FF10C00FE010E020E030E06D
:101A500004C0000F111F221F331F4A95D2F70095B3
:101A600010952095309503C000E010E09801C695D0
:101A7000C695C370BC01CD01602B712B822B932BBB
:101A8000C23049F058F4C13019F00E94B212DAC0E5
:101A90000E94A012D7C00E94C412D4C00E949E12FD
:101AA000D1C0DD2319F08C2F817001C08695882369
:101AB00009F4C8C0402F429546954770440F440F23
:101AC000602F6F70862F90E0A0E0B0E0042E04C07D
:101AD000880F991FAA1FBB1F0A94D2F704FF10C0DA
:101AE0000FE010E020E030E004C0000F111F221FC3
:101AF000331F4A95D2F7009510952095309503C075
:101B000000E010E09801C695C695C370BC01CD01F8
:101B1000602B712B822B932BC23049F058F4C130CB
:101B200019F00E9477138EC00E9465138BC00E942B
:101B3000891388C00E94D81285C0CF70DD2339F088
:101B40008C2F0E94FE12802F0E942A0C7BC0802FB7
:101B50000E94310C8C2F0E941F1374C0023F01F1B0
:101B600028F4003F41F0013FA1F03FC0033FF9F0EE
:101B7000043F39F13AC0DD2341F0153008F05EC072
:101B80008C2F8F710E94441359C0163008F056C034
:101B9000F7CFDD2339F08C2F8F710E94FE124EC0DB
:101BA000DD23C9F38C2F8F710E941F1347C0DD23E3
:101BB00029F08C2F8F710E94E91240C00E94E4121C
:101BC0003DC0DD2349F0CF718C2F0E94FE1263E0EF
:101BD0008C2F0E94F71432C081E00E940C15123045
:101BE00068F182E00E940C1529C0DD2331F0112339
:101BF00091F2802F0E94090B21C0112399F2093321
:101C000049F49FEFE7EEF3E09150E040F040E1F758
:101C100000C00000802F0E94AB0B10C04C2F4F70F3
:101C2000602FC7010E94F7030E940F120FC04C2FB4
:101C30004F70602FC7010E94FA0308C088EF8C0D17
:101C4000843020F40E946C090E94EE03DD20C9F06C
:101C50000E94691480FD15C0F70112820E9463146E
:101C60000E94FE12C7010E94620E0E946314DF915F
:101C7000CF911F910F91FF90EF90DF90CF900C9438
:101C80001F13DF91CF911F910F91FF90EF90DF9085
:101C9000CF9008950F931F93CF93DF93EC0168814A
:101CA00079818A810E9440148C010E949B130E94BA
:101CB0008C12B801CE010E94380CDF91CF911F9198
:101CC0000F910895CF93DF93EC01988189812B8147
:101CD0003C81232B31F08F3F31F481E09F3F19F499
:101CE00003C081E001C080E080FD19C0CE010E94E8
:101CF000AA0381110CC00E946D14882381F08A818F
:101D0000882369F082E0DF91CF910C940C15CE010D
:101D10000E944A0ECE01DF91CF910C948303DF9194
:101D2000CF91089580E090E00E94830980E090E0E8
:101D30000E9499090E9494140E94A4140C94C21445
:101D400080916000909161000E9421160C94920E87
:101D50000E9484140C94A00EE92FE295EF704E2F90
:101D600050E0FA013297EE30F105B0F4E65CFF4F37
:101D70000C94041A803F91F018F4883E68F40EC069
:101D8000843F51F40BC0883E48F0813F29F406C0DF
:101D900093FB882780F9089580E0089581E00895F5
:101DA0000E9435140E94AC0E0895CF93DF9300D0AB
:101DB00000D01F92CDB7DEB70F900F900F900F900D
:101DC0000F90DF91CF910895CF93DF9300D000D093
:101DD00000D0CDB7DEB726960FB6F894DEBF0FBEA3
:101DE000CDBFDF91CF9108951F93CF93DF93C09123
:101DF000190116E080911A01C81799F0D0E01C9FD4
:101E0000F0011D9FF00D1124E55EFE4F40815181D0
:101E100062817381848195810E94E40E2196C7704E
:101E2000E9CFDF91CF911F91089540914B015091DF
:101E30004C0160914D0170914E0180914F01909144
:101E400050010C94E40E0F931F93CF93DF93809176
:101E5000500182958F7009F05DC080914D018823FB
:101E600009F458C08091190110911A0160914B0139
:101E700070914C01C0914E01D0914F0191E06F3FA4
:101E800009F090E0292F06E0811709F443C020975C
:101E900021F07F3F21F030E003C031E001C0322F5C
:101EA00090E030FD34C0089FF001099FF00D11242F
:101EB000DF01A55EBE4F11963C911197371327C0E5
:101EC0003C91361324C012963C91129731111FC0D9
:101ED00013964D915C9114974C1B5D0B483C51053A
:101EE000B0F4809150018F70806180935001E05E6A
:101EF000FE4F80818F70806180838BE491E00E942F
:101F0000620EDF91CF911F910F910C94F40E019608
:101F10008770BACFDF91CF911F910F9108959F9253
:101F2000AF92BF92CF92DF92EF92FF920F931F93E7
:101F3000CF93DF93CDB7DEB761970FB6F894DEBFCE
:101F40000FBECDBF8C0185E0F801DE011D9601902A
:101F50000D928A95E1F7F80140815181E2809091DC
:101F60004B0160914C0120914E0130914F012115A0
:101F7000310531F06F3F31F481E09F3F19F403C028
:101F800081E001C080E0F82FF1709F2E80FD46C1F6
:101F9000F801A380B4808BE4C82E81E0D82EF090A5
:101FA0004D01F501E21BF30BFF2009F4DFC0809126
:101FB0005001E83CF10508F09BC0282F207F09F074
:101FC00052C0561313C0491311C0FE2CE1100EC0AD
:101FD0008F708061809350010E94150FC6010E948E
:101FE000620E80915001F801858358C1AB2831F011
:101FF0005F3F31F481E04F3F19F403C081E001C03D
:1020000080E080FD03C081E08E2502C080E090E08A
:10201000F82FF170FF2E80FF1CC0809119012091D4
:102020001A0136E0821709F417C190E0389FF001D9
:10203000399FF00D1124E55EFE4F6181561306C0F5
:102040006081461303C06281E61203C00196877067
:10205000E9CFFE2CEE2009F421C18091500181606E
:10206000809350015AC0561306C0491304C0E110B2
:1020700002C0F8019FC04D875E878D859E850E94B6
:10208000D00E882379F1EE2069F120915001822F42
:1020900082958F7090E0029774F080914B0190913F
:1020A0004C0198878F831986BB86AA862C87CE0120
:1020B00007960E94620E86E0F801ABE4B1E0019061
:1020C0000D928A95E1F70E94230F0E94150F0DC013
:1020D000561729F14D875E878D859E850E94D00E0B
:1020E00081112CC0C8010E94620EFF24F394D6C057
:1020F000282F207F69F77A2DB98AA88A6E2D8989C1
:102100000E94D50E8BE491E00E94620E86E0F601FB
:1021100011928A95E9F70E94150FF12CBFC049135F
:10212000D9CFE110D7CFF8018583C8010E94620E94
:1021300086E0F60111928A95E9F7B0C0EE2091F29F
:1021400020915001822F82958F7090E002970CF4BD
:10215000B2CF80914B0190914C019A8389831B826D
:10216000BD82AC822E83CE010196A3CFE83CF1055F
:1021700008F047C0FE2CEE2009F4B4CF561330C04F
:1021800049132EC02091500120FD21C0822F82953D
:102190008F70482F50E041155105C9F0F801258393
:1021A0004F30510541F08F5F982F9295907F822F8D
:1021B0008F70892B8583C8010E94620E86E0F8012A
:1021C000ABE4B1E001900D928A95E1F742C086E060
:1021D000F801ABE4B1E001900D928A95E1F75EC0A1
:1021E0004D875E878D859E850E94D00E811163CFBD
:1021F00080915001816080935001C8010E94620E5D
:102200004DC07A2DB98AA88A6E2D89890E94D50E73
:1022100086E0F60111928A95E9F71BC0EE2009F4D9
:1022200061CF4D875E878D859E850E94D00EF82EEA
:10223000882309F457CF86E0F801ABE4B1E00190C0
:102240000D928A95E1F78BE491E00E94030B0E94C6
:10225000230F0E94150F22C04D875E878D859E85B6
:102260000E943514292F22952F70223028F49F7058
:1022700039F0811105C00BC0243028F49F7049F457
:10228000805E883020F0C8010E94620E9F2CF92CDD
:1022900005C0F8019581907F99F7F9CF8F2D619650
:1022A0000FB6F894DEBF0FBECDBFDF91CF911F9167
:1022B0000F91FF90EF90DF90CF90BF90AF909F90E5
:1022C00008951F93CF93DF93CDB7DEB72C970FB64A
:1022D000F894DEBF0FBECDBF4F83588769877A87DA
:1022E0008B879C87CE0107960E948F0F8823D1F0A1
:1022F0009F8188852A853B85232B31F08F3F31F4E0
:1023000081E09F3F19F403C081E001C080E080FDBF
:1023100047C04F81588569857A858B859C850E9449
:10232000E40E3EC086E0FE013796DE011196019074
:102330000D928A95E1F7FF81E8856A857B856115B5
:10234000710531F0EF3F31F481E0FF3F19F403C034
:1023500081E001C080E080FD23C020911A0130E0BF
:10236000C9010196877099274091190150E084179F
:102370009507F1F1F983EA837D836C8396E0929F60
:10238000D001939FB00D1124A55EBE4FFE01319682
:1023900001900D929A95E1F780931A010E94F40E34
:1023A00016E08091190190911A01891771F1189F17
:1023B000C0011124855E9E4F0E948F0F882329F152
:1023C000E09119011E9FF0011124E55EFE4F40814E
:1023D000518162817381848195810E94E40E809194
:1023E000190190E001968770992780931901D9CF40
:1023F0000E94A80E10921A0110921901EBE4F1E06C
:1024000086E0DF011D928A95E9F72C960FB6F894C5
:10241000DEBF0FBECDBFDF91CF911F910895EF9228
:10242000FF920F931F93CF93DF938C01892B09F4B5
:102430006CC0F12CEE24E394E8012196F80184911C
:10244000843740F4843008F051C0813081F082300C
:1024500019F15BC0853709F444C0A8F19CE7980FD7
:10246000903708F052C08F770E94AB0B41C00E5FCF
:102470001F4FFE01849190E2980F983050F48770BE
:10248000FE2D01C0FF0F8A95EAF78F2F0E94971447
:1024900014C00E94090B2DC00E5F1F4FFE018491D6
:1024A00090E2980F983060F48770FE2D01C0FF0F06
:1024B0008A95EAF78F2F0E949D140E94C21419C0BA
:1024C0000E94AB0B16C00E5F1F4FFE01C491CC23C0
:1024D00081F08FE99FE00197F1F700C00000C15043
:1024E000F6CF0E5F1F4FFE01F49003C00E94090B50
:1024F0008E018F2D882309F49FCFEFE9FFE03197FC
:10250000F1F700C000008150F5CFDF91CF911F910E
:102510000F91FF90EF900895089508950C948D12F7
:102520000C948E120E94901260939B0170939C01F8
:1025300080939D0190939E010C94920E0C949212A4
:102540000F931F9300919B0110919C0120919D017D
:1025500030919E01602B712B822B932B1F910F9139
:102560000C9492120F931F9300919B0110919C0168
:1025700020919D0130919E0160237123822393233A
:102580001F910F910C9492120F931F9300919B0136
:1025900010919C0120919D0130919E01602771272F
:1025A000822793271F910F910C9492120C948D12F5
:1025B0000E94D612609397017093980180939901BD
:1025C00090939A010C94920E60E070E0CB010C9411
:1025D000D8120F931F9341E050E060E070E08A0151
:1025E0009B0104C0000F111F221F331F8A95D2F7D1
:1025F000C901B8011F910F910C94D8120F931F932A
:1026000041E050E060E070E004C0440F551F661FD9
:10261000771F8A95D2F78091970190919801A091A8
:102620009901B0919A018A019B01082B192B2A2B41
:102630003B2BC901B8011F910F910C94D8120F9335
:102640001F9341E050E060E070E004C0440F551F6C
:10265000661F771F8A95D2F74095509560957095C3
:102660008091970190919801A0919901B0919A0160
:102670008A019B01082319232A233B23C901B8019E
:102680001F910F910C94D8120F931F9341E050E0CB
:1026900060E070E004C0440F551F661F771F8A95E5
:1026A000D2F78091970190919801A0919901B091F2
:1026B0009A018A019B01082719272A273B27C9016C
:1026C000B8011F910F910C94D8120F931F93009192
:1026D0009701109198012091990130919A01602BF6
:1026E000712B822B932B1F910F910C94D8120F9367
:1026F0001F930091970110919801209199013091B9
:102700009A0160237123822393231F910F910C94CC
:10271000D8120F931F930091970110919801209167
:10272000990130919A0160277127822793271F9181
:102730000F910C94D812089522E1929F800D1124DC
:10274000E82FE695E695E695877051E001C0550FB4
:102750008A95EAF785E0E89FF0011124EF5AFE4FD1
:1027600020E030E070E04081CB01022E02C096955F
:1027700087950A94E2F781708195842785238427C1
:1027800081932F5F3F4F2530310569F7089522E18E
:10279000929F800D1124682F669566956695982FF7
:1027A000977085E0689FB001112440E050E080E020
:1027B000FB01E40FF51FEF5AFE4F208130E0092E98
:1027C00002C0369527950A94E2F721703327042E2C
:1027D00001C0220F0A94EAF7822B4F5F5F4F45300A
:1027E000510531F70895BF92CF92DF92EF92FF9299
:1027F0000F931F93CF93DF938C01C0909701D090DC
:102800009801E0909901F0909A0180919B0190913C
:102810009C01A0919D01B0919E01C82AD92AEA2A63
:10282000FB2ACFE1D0E0D701C6010C2E04C0B6953B
:10283000A795979587950A94D2F780FD04C02197B4
:1028400090F7B12C07C0BC2EB8018C2F0E94160443
:102850000197A9F38B2DDF91CF911F910F91FF90DD
:10286000EF90DF90CF90BF900895CF93DF93EC016E
:102870000E94F313BE010E941604DF91CF910895C8
:102880001F93CF93DF93EB0190911801992321F0CF
:10289000CB010E94351413C0882349F0CB010E945C
:1028A000F313182F682FCE010E949C1304C0CB0194
:1028B0000E94C713182FBE01812F0E941604DF91BA
:1028C000CF911F91089580919F018595859585955C
:1028D000089580919F018770089590919F0197704E
:1028E00081E009F480E008958091AB010895909112
:1028F000AB01892B8093AB01089580959091AB013A
:1029000089238093AB0108951092AB0108959091B3
:10291000AA01892B8093AA01089580959091AA011C
:1029200089238093AA0108951092AA010895909195
:10293000A901892B8093A901089580959091A901FF
:1029400089238093A90108951092A9010895809187
:10295000A001089508950C94AA140C94AB149091BE
:10296000A001981721F08093A0010C94AD14089554
:102970008091A001882329F01092A00180E00C949E
:10298000AD140895E0916000F09161008091AB0179
:102990008083E0916000F091610090818091AA01B4
:1029A000892B8083E0916000F0916100908180919B
:1029B000A901892B80838091A001882381F0E09177
:1029C0006000F09161009081892B8083809160008C
:1029D000909161000E94DB1581110E94B8148091D2
:1029E0006000909161000C9478090C94AA1498E00E
:1029F000899F90011124262B20939F010E94FE1293
:102A000080919F018595859585950C94F51410927C
:102A10009F0180E00C94F51420919F018095822302
:102A200080939F01982F977079F430E0482F082EFB
:102A3000000C550B2417350739F08595859585953C
:102A40000E941F130C940715089580E008956FEFFE
:102A50007FEF80E090E00C94351A80E090E00E94D7
:102A6000121A21E08B3E9E4F09F020E0822F08953C
:102A700082E090E00C940A1A83E090E00C940A1A29
:102A8000CF9384E090E00E940A1AC82F81E290E080
:102A90000E940A1A2C2F30E0A901582BCA01CF91AD
:102AA0000895CF93C92F682F84E090E00E94181AF0
:102AB0006C2F81E290E0CF910C94181AAB01BC010D
:102AC0008FE090E00C94291AAB01BC0183E190E007
:102AD0000C94291A60E070E0CB010C94641560E05E
:102AE00070E0CB010E945E150C946A156BEE7EEFD0
:102AF00080E090E00E94351A60E082E090E00E9461
:102B0000181A60E083E090E00E94181A10929B016E
:102B100010929C0110929D0110929E0160E084E051
:102B200090E00E94181A60E081E290E00E94181A7A
:102B300060E085E090E00E94181A60E086E090E096
:102B40000E94181A6FEF87E090E00E94181A40E088
:102B500050E0BA0188E090E00E94291A60E08DE020
:102B600090E00E94181A40E050E0BA0188E190E03D
:102B70000E94291A60E087E190E00E94181A40E064
:102B800050E0BA018CE190E00E94291A60E080E2F6
:102B900090E00E94181A40E050E0BA0188E190E00D
:102BA0000E94291A0C946F150C947615682F8EE0EC
:102BB00090E00C94181AFC01329697E080E0915056
:102BC00029F021912223D9F38F5FF9CF089566234D
:102BD00049F0FC01329608962191621729F0E81716
:102BE000F907D1F780E0089581E008959C01FC0188
:102BF00032969FEF80E04191461789F09F3F19F48C
:102C0000411101C0982F8F5F8630A9F79F3F39F09F
:102C1000F901E90FF11D97FDFA9562830895089572
:102C20009C012A5F3F4FFC014281461301C0128282
:102C3000019682179307B9F708950C94F6150C9432
:102C40001016029626E0FC0111922A95E9F70895E4
:102C500008950C9428160C942816CF930E942B16D6
:102C60000E9460060E942916C0E08C2F0E94FF057A
:102C7000672B682B692B29F4CF5FC630B1F780E052
:102C800001C081E0CF9108950C9428160C9444164D
:102C90008091AD01882329F00E94461680E00C94B3
:102CA000EE0308950C9428160E94A80E0E946C0949
:102CB0000E94EE030C9452168BE083BF8AEF8CBF08
:102CC00082E089BF08952FB7F894809170029091A7
:102CD0007102A0917202B09173022FBF08952FB7B5
:102CE000F8946091700270917102809172029091DB
:102CF00073022FBF08959C014FB7F8948091700222
:102D000090917102A0917202B09173024FBF821B29
:102D1000930B089578941F920F920FB60F9211247F
:102D20008F939F93AF93BF938091700290917102A4
:102D3000A0917202B09173020196A11DB11D809302
:102D4000700290937102A0937202B0937302BF91CC
:102D5000AF919F918F910F900FBE0F901F9018957C
:102D600098E088E10FB6F894A89581BD0FBE91BD9B
:102D7000A895F894D8E0CEE528E3299320E029939C
:102D800014BEFFCF08959093E9008093E800089562
:102D90000C9427150E9460068FE39CE90197F1F7D8
:102DA00000C000000E94600680E00E94FF0560FFF6
:102DB00004C00E94C8160C94B01608950E942D15E8
:102DC000811102C00E94D4150E9438158093AC0175
:102DD0000E94401590937502809374020E943C15E6
:102DE000682F70E080E090E00E949E126091970151
:102DF000709198018091990190919A010C94D6124A
:102E00000F931F93CF93DF930E946316EC010E94F0
:102E1000DA090E94E9198B9A80E0815041F0A89567
:102E2000EFE9FFE03197F1F700C00000F6CF8B9893
:102E300078940E94E4090E940C180E946709FFEF31
:102E400020E732E0F15020403040E1F700C00000C0
:102E500001E01CE080919D02882371F010929D0298
:102E60000E946316EC018091AD01882391F01092CD
:102E7000AD010E9454160DC08091AD01811109C0B1
:102E8000CE010E947B16069720F00093AD010E94B0
:102E900048168091AD018823F9F00E9448160E94DF
:102EA0002D168823B9F2F89491B3939A892F8C60E8
:102EB00081BB82B3812782BB8FE7E8E3F1E08150D9
:102EC000E040F040E1F700C0000082B3812782BB00
:102ED00091BB93987894BECF0E94F2188091A30280
:102EE000882329F08091810284FD0E94EC090E94D0
:102EF000B3170E94CE090E94CD09ACCF80913F024A
:102F000008950895CF93DF9300D01F92CDB7DEB719
:102F10009091B001981307C02091AE013091AF019C
:102F20002617370791F08093B0017093AF0160933B
:102F3000AE0189837B836A838091BA0284FF05C0D6
:102F400063E0CE0101960E94EE180F900F900F9053
:102F5000DF91CF910895BC0184E00C948217BC01ED
:102F600083E00C948217CF93DF93CAE0D0E0809186
:102F7000810284FF18C08091BC019091BD01981717
:102F8000E1F028E0829FC001112468E082549E4F46
:102F90000E94EA188091BC0190E001968F709927F9
:102FA0008093BC010AC00E94F2188FE99FE001974C
:102FB000F1F700C000002197D1F6DF91CF9108957D
:102FC000CF93DF93EC01A091BD01B0E0CD0101965C
:102FD0008F7099272091BC01281779F093E0AA0FF0
:102FE000BB1F9A95E1F7A254BE4F98E0FE010190F5
:102FF0000D929A95E1F78093BD010E94F2180E940C
:10300000B31788E0FE01A4EBB1E001900D928A9520
:10301000E1F7DF91CF91089582E690E00895FC01F9
:10302000808180768032A1F58181813061F4848154
:103030009581892B69F584EB91E090939F028093B1
:103040009E0288E00895823041F48EE392E09093EE
:103050009F0280939E0281E008958A3021F483814B
:1030600080933E0215C0893099F482819381811545
:10307000924081F484819581892B61F481E0809371
:10308000B301868197819093B2018093B10102C010
:1030900080E008958FEF08952091B1013091B20141
:1030A000232B71F02091B301213051F4FC01808178
:1030B00080933F021092B2011092B10181E0089515
:1030C0008FEF08950895FC0193819330D9F068F44F
:1030D000913081F0923009F059C080E492E09093F1
:1030E0009F0280939E028BE30895913249F19232C0
:1030F000B9F14CC08BE792E090939F0280939E02BF
:1031000082E108958281813099F050F08230F1F5AA
:103110008DE892E090939F0280939E0284E108954F
:1031200085EC92E090939F0280939E0284E0089544
:1031300083EA92E090939F0280939E0280E208953A
:103140008281882329F0813009F58BE692E002C064
:1031500082E592E090939F0280939E0289E0089519
:1031600084819581009751F0019781F489EC92E078
:1031700090939F0280939E0282E308958BEF92E0EA
:1031800090939F0280939E0280E4089580E00895CA
:103190001F93CF93DF93162FEA01288124FF05C0E8
:1031A000398128E82327298302C02AE52883212F93
:1031B000FC01CE010296DC0131913D9321501216A3
:1031C000DCF3612F0E94F9011C5F1883DF91CF911E
:1031D0001F91089541E852E00C94C8184AEB52E060
:1031E0000C94C818CF93DF936091A002635067FDE1
:1031F00093C080919C02CCE0D0E0C81BD109CC5593
:10320000DD4F80919B02803120F4CE010E94621834
:1032100081C08D3209F06EC0683009F07BC083EC4C
:10322000809376028AE580936D0010929A028881DD
:10323000807621F0CE010E940F1849C09A81109229
:103240007F028981811106C0109280022FE732E04F
:1032500082E038C0853019F49093A10230C08630E6
:10326000A1F48B81813041F0823031F0833021F044
:10327000813211F0823221F4CE010E94631801C024
:1032800080E090E490939A0222C0883089F08930DF
:1032900019F49093A30213C08A3069F08B3079F44B
:1032A0008BE4809382028093BB0280938E0207C0DE
:1032B00023EA32E002C02FE732E081E003C02FE7CB
:1032C00032E080E030939F0220939E0209C08F3F3E
:1032D00039F4988197FD8E8190E890939A0207C007
:1032E0009F81911104C09E81981708F4892F8093C3
:1032F0006C0010C080919A0287FF0CC0CE010E9422
:103300004C188F3F21F48EE180936D0003C0811132
:1033100010926C001092A00280916D0084FF4CC04E
:1033200080916C008F3F09F447C0C82F893008F0A6
:10333000C8E08C1B80936C009091760288E8892706
:1033400080937602CC2359F180919E0290919F0246
:1033500020919A0226FF12C0A6E7B2E02C2FAC0102
:1033600046575240FA01EA0FFB1FE4911196EC9385
:103370001197215011962111F5CF08C0E7E7F2E02F
:10338000DC012C2F3D9131932150E1F701962FEF75
:103390002C0F820F911D90939F0280939E026C2FA1
:1033A00087E792E00E94F901CC5FCC3019F08FEFF3
:1033B00080936C00C0936D0084E190B39C7031F4F5
:1033C0008150D9F71092A10210929902DF91CF910A
:1033D0000895CF93DF9385B7886085BF8BB78068EA
:1033E0008BBFC1E8D2E08BE48983AAEBB2E01196EF
:1033F0008C931197EDE8F2E081838AE588838C93C2
:103400008083DF91CF910895EE0FFF1F0590F49117
:10341000E02D0994E199FECF9FBB8EBBE09A9927DE
:103420008DB30895A8E1B0E042E050E00C943D1A5D
:10343000262FE199FECF9FBB8EBBE09A01970DB27C
:10344000021631F02DBB0FB6F894E29AE19A0FBE46
:1034500008950396272F0E94191A0E94181A252FE3
:103460000E94191A242F0C94191A0196272F0E94D2
:10347000191A0C94181ADC01CB01FC01E199FECF5A
:1034800006C0FFBBEEBBE09A31960DB20D924150E3
:0A3490005040B8F70895F894FFCFFC
:10349A00A1017E17E0178117AF17AB17FF5AE20099
:1034AA00E900EA00B500B600B700CD008301CC0000
:1034BA008A01920194012102230224022502260292
:1034CA0027022A02B300B4006F0070008182839041
:1034DA0060916192629363946495969706050100E0
:1034EA0007323337343635E200E900EA00B500B670
:1034FA0000B700CD008301CC008A0192019401211A
:10350A0002230224022502260227022A02B300B459
:08351A00006F00700081828344
:00000001FF
