:100000000C94F1010C94A4090C9438020C9438025D
:100010000C9438020C9438020C9438020C94380278
:100020000C9438020C9438020C94B5200C9487215F
:100030000C942E170C9438020C9438020C9438024D
:100040000C9438020C9438020C9438020C94380248
:100050000C9438020C947B170C9438020C943802E0
:100060000C9438020C9438020C9438020C94380228
:100070000C9438020C9438020C9438020C94380218
:100080000C9438020C9438020C9438020C94380208
:100090000C9438020C9438020C9438020C943802F8
:1000A0000C9438020C9438020C943802120D120D84
:1000B000440D440D910DAF0DD00ED00EBA0D4F0E64
:1000C000600E600EC00ED00ED00EC90E700F700FF5
:1000D000820F820F790F820F820F820F700F700FC5
:1000E0007E0F820F820F7E0FF4211B2213231B220F
:1000F000132367228A221323E122F02268006E0074
:1001000029003A003B003C003D003E00AA00690087
:100110006F0035001E001F00200021002200540047
:100120006A0070002B0014001A0008001500170068
:100130002D006B0071003900040016000700090053
:100140000A002F006C007200E1001D001B00060079
:100150001900050036026D007300E0000151E20055
:10016000E30049002C002602A9003F0040004100A6
:1001700042004300440045000708310023002400EA
:100180002500260027002D002E004B002E001C000D
:1001900018000C00120013002F0030004E00300039
:1001A0000B000D000E000F003300340028004A0041
:1001B000370211001000360037003800E500520009
:1001C0004D0027022A004C00E600E700E400500042
:1001D00051004F000000000000000000000000007F
:1001E00000000000BE000000000000000000000051
:1001F00000000000000000000000000000000000FF
:1002000000000000000000000000000000000000EE
:1002100000000000000000000000000000000000DE
:10022000000000000000B20000000000000000001C
:100230000000000001000000065C0000000000005B
:10024000BD000000000000000000000000000000F1
:10025000A5020000000000000000000000000000F7
:10026000000000000000000000000000000000008E
:10027000000000000000000000000000000000007E
:10028000000000000000000000000000A8000000C6
:10029000000000000000000000000000000000005E
:1002A00000000F5C0000AC000000AB001203420035
:1002B00046004F002D0039003000300030000000B3
:1002C0000E034B0065006500620069006F000000CE
:1002D0000403090409023B00020100A0FA0904001A
:1002E0000001030101000921110100012240000762
:1002F00005810308000A0904010001030000000948
:1003000021110100012281000705820320000A1249
:100310000110010000000810CB691100010102006A
:100320000105010902A10185020901A100050919C0
:1003300001290515002501950575018102950175B5
:100340000381010501093009311581257F95027569
:1003500008810609381581257F95017508810605F4
:100360000C0A38021581257F950175088106C0C0E9
:1003700005010980A101850319012AB7001501268D
:10038000B700950175108100C0050C0901A1018518
:100390000419012AA002150126A0029501751081F9
:1003A00000C005010906A101050719E029E71500AC
:1003B00025019508750181029501750881010507E0
:1003C000190029FF150026FF009506750881000514
:1003D000081901290595057501910295017503918B
:1003E00001C011241FBECFEFDAE0DEBFCDBF04B6DF
:1003F00003FE27C08091CB029091CC02A091CD0248
:10040000B091CE028730904BA740B04BD1F4109200
:10041000CB021092CC021092CD021092CE0214BEEA
:1004200084B7877F84BF0FB6F894A8958091600049
:10043000886180936000109260000FBEE0E0F8E3F6
:10044000099511E0A0E0B1E0E2E7F7E402C0059011
:100450000D92A03AB107D9F722E0A0EAB1E001C0BD
:100460001D92AB3CB207E1F70E94F51D0C94B72337
:100470000C94000081E0089581E008950C943C0202
:1004800008950C9440021F93CF93DF9300D000D0C7
:100490001F92CDB7DEB749835A836B833091D70162
:1004A00089819A81311114C0662359F0222349F0C1
:1004B0000E94A914182F682F89819A810E945214D2
:1004C00003C00E947D14182F69817A81812F04C096
:1004D0000E94A91469817A810F900F900F900F905C
:1004E0000F90DF91CF911F910C94F502FC01262F04
:1004F000408151816281738184810C944302CF9346
:10050000DF93EC0160E00E947602BE01DF91CF91A3
:100510000C9441020E94DB15811102C00E948216D8
:100520000C9414050C94100508950E945E0F0E940F
:1005300094022FEF84E39CE0215080409040E1F74B
:1005400000C000000C94A1170F931F93CF93DF936B
:10055000EC0161E00E9476028C01BE010E943E0225
:10056000882349F1BE01C8010E944D07882319F173
:10057000BE01C8010E949F078823E9F0BE01C8019F
:100580000E94CA088823B9F08A81882369F001157E
:100590008CE5180731F00F3D1C4531F40E9482169E
:1005A0000AC00E94950207C0CE01DF91CF911F9132
:1005B0000F910C943A0280E0DF91CF911F910F913F
:1005C000089508950C94E10281E008950C94E402EA
:1005D000CF93C82F0E94E2028C2F0E94E602CF9197
:1005E000089580E090E0089508952CE6829FC00170
:1005F0001124FC0129E0729FE00DF11D1124E60F8A
:10060000F11DEE0FFF1FE450FF4F85919491089567
:10061000880F991FFC01E455FD4F85919491089531
:10062000CF93DF930E94F5020E942804EC0181150C
:10063000904508F041C0C11580E4D80708F0D1C04A
:10064000C83ED10510F5C03ED10508F0FDC0C83A3E
:10065000D10578F4C53AD10508F0A2C0C130D10562
:1006600009F4F2C008F4EEC0C430D10508F0ECC0C3
:10067000E9C0CF3BD10508F49BC0C03CD10508F4CC
:10068000E1C0CE01805C91099EC0C11590E2D907FE
:1006900058F4C11521E0D20708F0D6C0C03FD105FB
:1006A00008F4D0C0D065D0C0C11580E3D80708F0E9
:1006B0008EC0CE019F7087C0C11595E5D90708F09F
:1006C00043C0C11524E5D20708F0A2C0C11582E5D8
:1006D000D80708F5C11591E5D90708F085C0CE0106
:1006E00074E0969587957A95E1F783709C2F9370C7
:1006F00021E030E002C0220F331F9A95E2F73C68F8
:10070000382BCF70C695C69580E2C89FE0011124B2
:10071000C22BD32B99C09E01237033278C2F869533
:100720008695C115D34508F064C0C1E0D0E002C091
:10073000CC0FDD1F2A95E2F720E2829FC001112431
:10074000C82BD92BDC6880C0C11529E5D207A0F4DD
:10075000C11588E5D80708F060C0C11596E5D9072E
:1007600008F070C08C2F0E94BC048F71C82FD0E09D
:10077000DC2FCC27D06268C0C1152AE5D20708F467
:1007800051C0CE0190568115904208F05BC08D2F6C
:100790008F710E94BC04DD27D0628F71D82B54C0AA
:1007A000C55AD0E0C45BDE4FC881D0E0D0644CC0F5
:1007B000C85AD0E0CC0FDD1FC25EDE4F0990D88151
:1007C000C02DD46441C00E940803EC013DC0CE019D
:1007D0009927D3FF03C0EC01D86C36C0EC01D06C74
:1007E00033C0DF70D06A30C0DC2FCC27C16FD06A35
:1007F0002BC0C1E0D0E002C0CC0FDD1F2A95E2F78C
:1008000020E2829FC0011124C82BD92BDA681CC0BA
:10081000DC2FCC27C46FD06A17C0DC2FCC27C06F69
:10082000D06A12C08C2F8F700E94BC0494E0D695C1
:10083000C7959A95E1F7CF70D0E0DC2FCC27D0692F
:10084000C82B02C0C0E0D0E0CE01DF91CF91089567
:100850008238910569F1B0F48133910509F46DC0D6
:1008600048F48932910509F463C08A32910509F48C
:1008700069C008958533910509F455C08933910500
:10088000B9F00895833E910569F138F4803E9105F1
:10089000B1F0823E910509F10895863E9105A9F1D6
:1008A000873E9105B9F1843E910509F064C023C0EB
:1008B0002091BC0220FD4FC021FD4DC008958091C4
:1008C000BC0280FD44C08091BD0280FF44C0809185
:1008D000BC0284FD42C083EE4DC08091BC0282FF09
:1008E00038C0F5CF8091BC0282FD33C08091BD023B
:1008F00080FD31C0ECCF8091BD0281FF32C080917C
:10090000BC0284FD2AC087EE35C08091BC0283FF03
:1009100026C0F5CF8091BC0283FD21C08091BD022D
:1009200081FD1FC0ECCF8091BC0285FD1CC01DC0A5
:100930008091BC0285FD19C016C08091BC0286FD65
:1009400016C017C08091BC0286FD13C010C089E399
:1009500011C082EE0FC080EE0DC080E00BC086EEAD
:1009600009C084EE07C089E205C085E303C08AE2BE
:1009700001C081E390E008959091BC0292FF0DC008
:10098000282F2871283019F4877F846006C0282F0B
:100990002471243011F48B7F886093FF0DC0282FC1
:1009A0002871283119F4877E846106C0282F2471AC
:1009B000243111F48B7E88612091BD0220FF0DC08F
:1009C000382F3871383019F4877F816006C0382F8E
:1009D0003171313011F48E7F886021FF0DC0282FD6
:1009E0002871283119F4877E816106C0282F217172
:1009F000213111F48E7E886194FD877E0895E82F61
:100A0000F0E0EE0FFF1FE256FD4F808191810895C7
:100A1000089580EA8A95F1F7089508950C940D05DC
:100A20000C940E050C940D050C941205F894E82F07
:100A3000E295EF70F0E031A1282F2F7081E090E077
:100A400001C0880F2A95EAF7982F9095932391A3D8
:100A500092A1892B82A3789408950895CF93DF9370
:100A60000E948B068091000180910001811102C0DB
:100A700096E001C090E09093B70286E0891B8093D6
:100A8000B602C8E5D1E089910E94160581E0CE3515
:100A9000D807C9F7CFE4D1E089910E94160581E01B
:100AA000C835D807C9F7E6E8F2E0AEE9B2E08EE96A
:100AB00092E0119211921D921D928E179F07C9F715
:100AC00086E00E9431060E948A02DF91CF910C9449
:100AD00095060E946C06882351F18091B60290E041
:100AE000880F991F82569D4F0E94A80681111BC036
:100AF0008091A0018F5F8093A0018630B0F080913B
:100B0000B60290E0880F991F20E030E0F901E80F6D
:100B1000F91FE256FD4F118210822E5F3F4F2C309D
:100B20003105A1F702C01092A0010C9492028091AD
:100B3000B70290E0880F991F82569D4F0E94C7060A
:100B40000C942D057F928F929F92AF92BF92CF927D
:100B5000DF92EF92FF920F931F93CF93DF9308E5FD
:100B600011E0C6E8D2E092E9C92E92E0D92E712CAC
:100B7000EE24E394F12C5801F8018081F894E82FD9
:100B8000E295EF70F0E021A18F70A70102C0440F41
:100B9000551F8A95E2F7CA01922F982B91A392A133
:100BA0008095892382A378940E940905EFE4F1E0FF
:100BB00020E030E0812C912C4191A42FA295AF70C0
:100BC000B0E090968C9190E04F7002C0959587951B
:100BD0004A95E2F780FD08C0C701022E02C0880FC7
:100BE000991F0A94E2F702C080E090E0882A992ACF
:100BF0002F5F3F4F29303105F9F60F5F1F4FF50189
:100C000080810E941605888199818816990621F0B5
:100C10009982888281E001C080E0782A2296CC16F1
:100C2000DD0609F0A8CF6091B70270E0660F771F6C
:100C300062567D4F272D46E086E892E00E943206FC
:100C40000E946905872DDF91CF911F910F91FF9031
:100C5000EF90DF90CF90BF90AF909F908F907F905C
:100C600008950895FF920F931F93CF93DF93F82E6B
:100C7000092F162FD72FC42F222349F081E080930C
:100C8000A3010E9460179093A2018093A10180911B
:100C9000A3018823D9F08091A1019091A2010E9423
:100CA0006C17069798F0EF2DF02FA12FBD2F80E045
:100CB00090E04C2F50E08417950734F42191319146
:100CC0002D933D930196F7CF1092A301DF91CF9121
:100CD0001F910F91FF9008958091A401811112C07E
:100CE0008091D80080618093D8008AE18A95F1F7DD
:100CF00000C08091D90080FD02C082E001C081E087
:100D00008093A40181E09091A401913009F080E0EA
:100D100008950C946C060E948906809300010E943D
:100D20006C0681110C949C0608950E946C0681113A
:100D300002C00C94A206089561E070E081E091E0A9
:100D40000C94560961E070E081E091E00C945D093B
:100D5000CF93DF93D82FC92F0E94F509892B99F4DF
:100D6000ED2FFC2F80E090E0DC01AA0FBB1FAA55FD
:100D7000BE4F2D913C912193319301968630910580
:100D800099F781E001C080E0DF91CF91089520E0E4
:100D900030E0FC0141915191CF01F901EE0FFF1FAD
:100DA000EA55FE4F518340832F5F3F4F2630310578
:100DB00081F708950F931F93CF93DF93C42FD22F02
:100DC000FC0182818823C9F04093B4010E9460171E
:100DD0009093B3018093B20180E28C0F883008F0C9
:100DE00057C0C77081E001C0880FCA95EAF7DF914C
:100DF000CF911F910F910C94CE0C8091B4014813A8
:100E000030C08091B2019091B3010E946C17883C70
:100E1000910538F510E21D0FCD17B9F080E28C0F67
:100E2000883040F4C77081E001C0880FCA95EAF7A6
:100E30000E94D50C183028F581E09D2F977001C0D5
:100E4000880F9A95EAF70E94CE0C802F0E94BB0C67
:100E50001830F0F4D77081E001C0880FDA95EAF716
:100E60000AC080E28C0F883098F4C77081E001C01E
:100E7000880FCA95EAF7DF91CF911F910F910C94DB
:100E8000D50C802FDF91CF911F910F910C94BB0C4B
:100E9000DF91CF911F910F9108950F939C01CB018A
:100EA000243F4CE5340731F188F4293DFCE53F0748
:100EB000D9F02A3D4CE5340779F1283D3C45A9F5A8
:100EC00006E221EE41EE68ED7CE52BC0263FFCE515
:100ED0003F07E1F0A8F0273F3C4539F507E225EE52
:100EE00046EE67EF7CE51DC007E225EE45EE69EDB5
:100EF0007CE517C006E221EE40EE64EF7CE511C010
:100F000007E225EE44EE65EF7CE50BC006E221EE3C
:100F100042EE66EF7CE505C008E221E045EE6AEDB1
:100F20007CE50E94DA0680E008C0FC01828188230B
:100F300019F01092B40101C081E00F910895CF9390
:100F4000DF93EC01FB018281882309F41FC1C230C9
:100F5000FCE5DF0708F41BC1C6319CE5D90738F072
:100F60009E012B5F3C452930310508F010C10E94DD
:100F7000EE159093BD028093BC02C031ECE5DE0714
:100F800009F4C3C008F041C0C8308CE5D80709F4A3
:100F90009AC0F0F4C430ECE5DE0709F487C068F4C9
:100FA000C2308CE5D80709F477C0C330DC4509F0BE
:100FB000E3C08091BC02826076C0C630ECE5DE07FB
:100FC00009F46EC008F07BC08091BC0288606BC0E1
:100FD000CC308CE5D80709F485C068F4CA30ECE55C
:100FE000DE0709F474C008F079C00E945E0F80919A
:100FF000BC02806858C0CE308CE5D80709F476C0B2
:1010000008F07FC08091BC028BC0CC3FECE5DE07CE
:1010100009F44FC018F5C3318CE5D80709F47DC039
:1010200078F4C131ECE5DE0709F473C0C231DC4568
:1010300009F0A2C00E945E0F8091BC028F7733C07E
:10104000C5318CE5D80709F472C008F486C0CB3FDF
:10105000DC4509F091C08091BD023EC0C115FDE59F
:10106000DF0709F45FC058F4CE3F9CE5D90709F4C7
:1010700044C008F43FC08091BD0282602DC0C230E0
:10108000FDE5DF0709F475C008F45DC0C330DD4538
:1010900009F072C080E06EC08091BC02816003C024
:1010A0008091BC0280618093BC0266C08091BC02CA
:1010B00011C08091BD0282608093BD025DC08091AD
:1010C000BC028062F0CF8091BC028064ECCF809142
:1010D000BC0288608460E7CF8160EECF8091BC0263
:1010E0008E7FE1CF8091BC028D7FDDCF8091BC02ED
:1010F000877FD9CF8091BD0218C08091BD028D7FBE
:10110000DBCF8091BC028F7ECECF8091BC028F7DE1
:10111000CACF8091BC028F7BC6CF8091BC02877FF3
:101120008B7FC1CF8091BD028D7F8E7FC5CF809197
:10113000BC0282FB222720F991E0922790FB82F9E2
:1011400090FB83F9B0CF8091BD02982F909591705C
:101150008E7F892B90FB81F9AFCF0E945E0F80912B
:10116000BC0287FB222720F991E0922790FB87F9A8
:101170009ACF81E00E9484168091BC029091BD02BA
:101180000E94FF150E945E0F80E001C081E0DF91A8
:10119000CF910895CF93DF9386319C4541F5EB01C4
:1011A0000E942A15982F8A812091090130910A0105
:1011B000882379F09A7A81E009F480E08093B50180
:1011C000911102C069E201C065E3C9010E94CB161A
:1011D0000AC08091B501811102C069E201C065E3D6
:1011E000C9010E94CD160E94781580E001C081E0FF
:1011F000DF91CF9108958EE1489B02C08150E1F7C5
:10120000489BFECF0895589880E28A95F1F7589A46
:101210000895FC012AE02A95F1F728E090E080E0AB
:1012200031E040E14A95F1F7880F489B02C08160A8
:10123000932700C0000040E14A95F1F7215089F75B
:1012400020E12A95F1F729B100C0000030E13A957C
:10125000F1F7217092272081920F90830895EF92E9
:10126000FF920F931F93CF93DF931F92CDB7DEB7FB
:1012700019828C017C01E60EF11C0E151F0551F040
:101280000E94FB08CE0101960E940909F801819392
:101290008F01F3CF81E09981911180E00F90DF9170
:1012A000CF911F910F91FF90EF9008959093B70108
:1012B0008093B601509A589A08959093B7018093FD
:1012C000B6015098589AE89AE9E6F0E080818C7F60
:1012D00080830895615091E001C0990F6A95EAF703
:1012E00020E031E0992361F0492F482319F0589A02
:1012F000232701C0589840E24A95F1F79695F2CF1E
:10130000222311F0589A01C0589880E28A95F1F78B
:1013100058980895FF920F931F93CF93DF93EC019A
:101320008C01060F111DC017D10741F0F9900E94E2
:10133000030968E08F2D0E946A09F5CFDF91CF91F4
:101340001F910F91FF9008951F920F920FB60F9269
:1013500011242F933F934F935F936F937F938F93BA
:101360009F93AF93BF93CF93DF93EF93FF935898DF
:10137000509AC091B601D091B7016D81662321F0DA
:101380008E819F810E948A090E94030980E18A95CB
:10139000F1F758985098589A80E18A95F1F76A8148
:1013A000662351F08B819C810E942F09E881F9818D
:1013B000811104C082E003C0E881F98188E0808364
:1013C0000E94FB08FF91EF91DF91CF91BF91AF9108
:1013D0009F918F917F916F915F914F913F912F914D
:1013E0000F900FBE0F901F901895CF93DF93C09171
:1013F000B601D091B701F894509A589885E08A9533
:10140000F1F700005098589A80E28A95F1F7489BCE
:101410000AC0509A589AE881F98181E080837894D3
:1014200081E090E02CC06D81662381F08E819F81E8
:101430000E942F0981110AC0509A589AE881F981B7
:1014400082E08083789482E090E019C00E94FB08DB
:1014500080E28A95F1F75898509A80E18A95F1F7E1
:101460006A81662321F08B819C810E948A090E94F7
:101470000309E881F9811082789480E090E0DF919F
:10148000CF9108959093BD018093BC010895E091A0
:10149000BC01F091BD01309721F00190F081E02D69
:1014A000099480E00895E091BC01F091BD0130976E
:1014B00021F00280F381E02D09940895E091BC01B0
:1014C000F091BD01309739F022E0DC012C930480CB
:1014D000F581E02D099408952091BA013091BB0166
:1014E0002817390771F09093BB018093BA01E091FE
:1014F000BC01F091BD01309721F00680F781E02D0D
:10150000099408952091B8013091B901281739073D
:1015100071F09093B9018093B801E091BC01F09112
:10152000BD01309721F00084F185E02D09940895E4
:1015300085B7806885BF85B7806885BF08950C949E
:101540006C0608950C94A10A0C94A10A0C94A40AA8
:101550000C94A10A0C94A80A0C94A10A0E94980A5F
:101560000E94AC0A0C94AA0A0E9457170E942E05EA
:101570000E94B2170C94A60A7F928F929F92AF920C
:10158000BF92CF92DF92EF92FF920F931F93CF9370
:10159000DF93CDB7DEB72A970FB6F894DEBF0FBE44
:1015A000CDBF0E94A20A0E94A10A0E94A2050E9429
:1015B0009F0A811111C08FEF89838A831B820E9449
:1015C00060178160782F9D838C8349815A816B815C
:1015D0008D810E94700B4FC04FEBA42E41E0B42EC2
:1015E00000E010E0702E802F0E94FF046C01F501D6
:1015F000819091905F01882699268114910431F49D
:101600000F5F1F4F0C30110569F7D5CF80916B022A
:1016100081FD0E94080580E0EE24E394F12C940102
:101620002E213F21232B09F18E837F82CE20DF20C4
:1016300081E0CD2809F480E088870E9460178160EE
:10164000782F9A8789874E815F8168858A850E9475
:10165000700B000F111FF801E154FE4F8081918142
:10166000E826F926F182E08206C08F5FEE0CFF1CAF
:101670008930A9F6C5CF0E9461190E94470A90914E
:10168000BE018917C9F00E94470A8093BE012A96BD
:101690000FB6F894DEBF0FBECDBFDF91CF911F9183
:1016A0000F91FF90EF90DF90CF90BF90AF909F9001
:1016B0008F907F900C94E8022A960FB6F894DEBFC4
:1016C0000FBECDBFDF91CF911F910F91FF90EF9093
:1016D000DF90CF90BF90AF909F908F907F900895B4
:1016E000CF93DF93CDB7DEB72B970FB6F894DEBF5D
:1016F0000FBECDBF4F83588769877A878B87DE01FE
:10170000119686E0FD0111928A95E9F785E0FE01C8
:10171000379601900D928A95E1F749815A816B8144
:101720007C818D819E810E9417122B960FB6F894B2
:10173000DEBF0FBECDBFDF91CF910895FC01808148
:1017400091810E94EB140895CF93882309F4A9C0D6
:10175000C82F8238C1F40E94470A81FDA2C069E304
:101760008091090190910A010E94CB160E94781580
:101770002FEF81EE94E0215080409040E1F700C0CF
:10178000000069E319C0833801F50E94470A80FD13
:1017900088C063E58091090190910A010E94CB16EF
:1017A0000E9478152FEF81EE94E021508040904008
:1017B000E1F700C0000063E58091090190910A0102
:1017C0000E94CD16CF910C9478158438C1F40E94F4
:1017D000470A82FD66C067E48091090190910A0181
:1017E0000E94CB160E9478152FEF81EE94E02150D5
:1017F00080409040E1F700C0000067E4DDCF8CEF4F
:101800008C0F813AF8F48C2F0E94FF1B811149C084
:101810006C2F8091090190910A010E9495168823EE
:1018200049F06C2F8091090190910A010E94CD1618
:101830000E9478156C2F8091090190910A010E94F5
:10184000CB16C0CF80E28C0F883048F4C77081E09F
:1018500001C0880FCA95EAF70E942D15B3CFEBE5BA
:10186000EC0FE33040F4F0E0EE56FE4F808190E064
:10187000CF910C946C0AE8E5EC0FE73150F4F0E0FE
:10188000EE0FFF1FEC59FE4F80819181CF910C9498
:10189000820AC03F30F08C2F0E945618CF910C94D2
:1018A0004319CF910895882309F464C0823879F4EC
:1018B0000E94470A81FF5EC069E38091090190910F
:1018C0000A010E94CB160E94781569E310C0833884
:1018D000B1F40E94470A80FF4DC063E58091090181
:1018E00090910A010E94CB160E94781563E58091C1
:1018F000090190910A010E94CD160C947815843844
:1019000079F40E94470A82FF35C067E4809109019B
:1019100090910A010E94CB160E94781567E4E7CFE8
:101920009CEF980F913A10F4682FE1CF90E2980F56
:10193000983050F4877091E001C0990F8A95EAF7CA
:10194000892F0E943315D9CF9BE5980F933020F44F
:1019500080E090E00C946C0A98E5980F973120F4A1
:1019600080E090E00C94820A803F20F00E94BE1834
:101970000C9443190895CF93C82F0E94A40BC93328
:1019800049F42FEF87EE93E0215080409040E1F73B
:1019900000C000008C2FCF910C94530C882321F0B1
:1019A0000E942D150C9478150895882321F00E942B
:1019B00033150C9478150895CF92DF92EF92FF9231
:1019C0000F931F93CF93DF937C01062FC72FFC014A
:1019D000158112951F70D281D1110E944A150E9463
:1019E0002315882399F0DD2389F08C2F807F8034A4
:1019F00021F080E2800F883048F082E00E94C2151A
:101A00000E94231591E0D82ED92601C0D12CCC2ECE
:101A1000C2948FE0C8228C2D90E0FC01EA5AFF4F5F
:101A20000C945B238C2F807FCF70882311F0C2959C
:101A3000C07FDD2399F0CC2309F48DC180E2800FB3
:101A4000883010F0011104C08C2F0E942D1503C0A6
:101A50008C2F0E943D150E9478157DC1802F0E9419
:101A6000530CCC2309F49CC180E2800F883010F025
:101A7000011104C08C2F0E94331503C08C2F0E94CB
:101A800043150E9478158CC18C2F807FCF708032D7
:101A900011F0C295C07F002319F00130C9F022C0B7
:101AA000DD2371F0112341F0113031F40E945D15F6
:101AB0008C2B0E94651574C10E945D158C2B1DC076
:101AC000112319F0113009F46BC10E946E1525C065
:101AD000DD2321F0163008F063C10EC0153008F088
:101AE0005FC11BC0DD2361F0112331F0F701858157
:101AF00080FF31C18F7085838C2F0E94CE0C50C126
:101B0000112359F0093309F037C1FFEF27EE83E0C5
:101B1000F15020408040E1F72DC18C2F0E94D50C60
:101B20003FC18C2F86958695837019F0813061F0C6
:101B300037C1DD2321F0802F9C2F937002C080E0FD
:101B400090E00E946C0A34C1DD2321F0802F9C2F8D
:101B5000937002C080E090E00E94820A29C1802F29
:101B6000DD2319F00E94561802C00E94BE180E9480
:101B700043191EC18C2F837009F045C0D11114C1C7
:101B8000402F429546954770440F440F602F6F7069
:101B9000862F90E0A0E0B0E0042E04C0880F991FCB
:101BA000AA1FBB1F0A94D2F704FF10C00FE010E079
:101BB00020E030E004C0000F111F221F331F4A95A0
:101BC000D2F7009510952095309503C000E010E005
:101BD0009801C695C695C370BC01CD01602B712BD1
:101BE000822B932BC23049F058F4C13019F00E9477
:101BF0006813DAC00E945613D7C00E947A13D4C06B
:101C00000E945413D1C0DD2319F08C2F817001C0C4
:101C10008695882309F4C8C0402F429546954770A1
:101C2000440F440F602F6F70862F90E0A0E0B0E06B
:101C3000042E04C0880F991FAA1FBB1F0A94D2F755
:101C400004FF10C00FE010E020E030E004C0000FFF
:101C5000111F221F331F4A95D2F70095109520952A
:101C6000309503C000E010E09801C695C695C3709A
:101C7000BC01CD01602B712B822B932BC23049F01C
:101C800058F4C13019F00E942D148EC00E941B140C
:101C90008BC00E943F1488C00E948E1385C0CF70F5
:101CA000DD2339F08C2F0E94B413802F0E94CE0CBC
:101CB0007BC0802F0E94D50C8C2F0E94D51374C03E
:101CC000023F01F128F4003F41F0013FA1F03FC085
:101CD000033FF9F0043F39F13AC0DD2341F01530FC
:101CE00008F05EC08C2F8F710E94FA1359C0163015
:101CF00008F056C0F7CFDD2339F08C2F8F710E948A
:101D0000B4134EC0DD23C9F38C2F8F710E94D513FD
:101D100047C0DD2329F08C2F8F710E949F1340C094
:101D20000E949A133DC0DD2349F0CF718C2F0E9491
:101D3000B41363E08C2F0E94AD1532C081E00E9485
:101D4000C215123068F182E00E94C21529C0DD235D
:101D500031F0112391F2802F0E94A40B21C0112396
:101D600099F2093349F49FEFE7EEF3E09150E04038
:101D7000F040E1F700C00000802F0E94530C10C01B
:101D80004C2F4F70602FC7010E94F1020E94C512B4
:101D90000FC04C2F4F70602FC7010E94F40208C083
:101DA00088EF8C0D843020F40E94470A0E94E802DC
:101DB000DD20C9F00E941F1580FD15C0F7011282B9
:101DC0000E9419150E94B413C7010E94140F0E94AB
:101DD0001915DF91CF911F910F91FF90EF90DF9038
:101DE000CF900C94D513DF91CF911F910F91FF905D
:101DF000EF90DF90CF9008950F931F93CF93DF93D1
:101E0000EC01688179818A810E94F6148C010E941C
:101E100051140E944213B801CE010E94DC0CDF91E4
:101E2000CF911F910F910895CF93DF93EC0198818B
:101E300089812B813C81232B31F08F3F31F481E06C
:101E40009F3F19F403C081E001C080E080FD19C00C
:101E5000CE010E94A40281110CC00E942315882388
:101E600081F08A81882369F082E0DF91CF910C9420
:101E7000C215CE010E94FC0ECE01DF91CF910C94D1
:101E80007F02DF91CF9108950E944A150E945A1552
:101E90000E9478150E94741A0E94431980E090E015
:101EA0000E946C0A80E090E00C94820A8091090103
:101EB00090910A010E94CF160C94440F0E943A158B
:101EC0000C94560FE92FE295EF704E2F50E0FA0177
:101ED0003297EE30F105B0F4EA59FF4F0C945B23D2
:101EE000803F91F018F4883E68F40EC0843F51F4AE
:101EF0000BC0883E48F0813F29F406C093FB882739
:101F000080F9089580E0089581E008950E94EB141F
:101F10000E94620F0895CF93DF9300D000D01F92EC
:101F2000CDB7DEB70F900F900F900F900F90DF910D
:101F3000CF910895CF93DF9300D000D000D0CDB7DC
:101F4000DEB726960FB6F894DEBF0FBECDBFDF9189
:101F5000CF9108951F93CF93DF93C091D80116E0DE
:101F60008091D901C81799F0D0E01C9FF0011D9F06
:101F7000F00D1124E652FE4F408151816281738140
:101F8000848195810E949A0F2196C770E9CFDF91D5
:101F9000CF911F91089540910A0250910B026091D8
:101FA0000C0270910D0280910E0290910F020C9420
:101FB0009A0F0F931F93CF93DF9380910F02829517
:101FC0008F7009F05DC080910C02882309F458C01D
:101FD0008091D8011091D90160910A0270910B0291
:101FE000C0910D02D0910E0291E06F3F09F090E098
:101FF000292F06E0811709F443C0209721F07F3F85
:1020000021F030E003C031E001C0322F90E030FD1C
:1020100034C0089FF001099FF00D1124DF01A65282
:10202000BE4F11963C911197371327C03C91361340
:1020300024C012963C91129731111FC013964D91F6
:102040005C9114974C1B5D0B483C5105B0F480919A
:102050000F028F70806180930F02E152FE4F8081EA
:102060008F70806180838AE092E00E94140FDF917C
:10207000CF911F910F910C94AA0F01968770BACF40
:10208000DF91CF911F910F9108959F92AF92BF92D0
:10209000CF92DF92EF92FF920F931F93CF93DF9334
:1020A000CDB7DEB761970FB6F894DEBF0FBECDBFD8
:1020B0008C0185E0F801DE011D9601900D928A9554
:1020C000E1F7F80140815181E28090910A0260912C
:1020D0000B0220910D0230910E022115310531F0D5
:1020E0006F3F31F481E09F3F19F403C081E001C0EC
:1020F00080E0F82FF1709F2E80FD46C1F801A3808B
:10210000B4808AE0C82E82E0D82EF0900C02F5014F
:10211000E21BF30BFF2009F4DFC080910F02E83CC3
:10212000F10508F09BC0282F207F09F052C05613FC
:1021300013C0491311C0FE2CE1100EC08F708061D6
:1021400080930F020E94CB0FC6010E94140F809152
:102150000F02F801858358C1AB2831F05F3F31F49D
:1021600081E04F3F19F403C081E001C080E080FDB1
:1021700003C081E08E2502C080E090E0F82FF1706E
:10218000FF2E80FF1CC08091D8012091D90136E03C
:10219000821709F417C190E0389FF001399FF00DC4
:1021A0001124E652FE4F6181561306C0608146132A
:1021B00003C06281E61203C001968770E9CFFE2C4E
:1021C000EE2009F421C180910F02816080930F02FB
:1021D0005AC0561306C0491304C0E11002C0F801EA
:1021E0009FC04D875E878D859E850E94860F8823C0
:1021F00079F1EE2069F120910F02822F82958F7084
:1022000090E0029774F080910A0290910B029887F7
:102210008F831986BB86AA862C87CE0107960E94DB
:10222000140F86E0F801AAE0B2E001900D928A95C1
:10223000E1F70E94D90F0E94CB0F0DC0561729F16C
:102240004D875E878D859E850E94860F81112CC0EB
:10225000C8010E94140FFF24F394D6C0282F207FBA
:1022600069F77A2DB98AA88A6E2D89890E948B0F09
:102270008AE092E00E94140F86E0F60111928A959E
:10228000E9F70E94CB0FF12CBFC04913D9CFE11061
:10229000D7CFF8018583C8010E94140F86E0F601AC
:1022A00011928A95E9F7B0C0EE2091F220910F02C9
:1022B000822F82958F7090E002970CF4B2CF8091BC
:1022C0000A0290910B029A8389831B82BD82AC82A1
:1022D0002E83CE010196A3CFE83CF10508F047C05C
:1022E000FE2CEE2009F4B4CF561330C049132EC093
:1022F00020910F0220FD21C0822F82958F70482FE0
:1023000050E041155105C9F0F80125834F305105C2
:1023100041F08F5F982F9295907F822F8F70892B3D
:102320008583C8010E94140F86E0F801AAE0B2E09C
:1023300001900D928A95E1F742C086E0F801AAE08B
:10234000B2E001900D928A95E1F75EC04D875E87FD
:102350008D859E850E94860F811163CF80910F022B
:10236000816080930F02C8010E94140F4DC07A2D26
:10237000B98AA88A6E2D89890E948B0F86E0F601A2
:1023800011928A95E9F71BC0EE2009F461CF4D87C1
:102390005E878D859E850E94860FF82E882309F41E
:1023A00057CF86E0F801AAE0B2E001900D928A953D
:1023B000E1F78AE092E00E949E0B0E94D90F0E94F2
:1023C000CB0F22C04D875E878D859E850E94EB14C2
:1023D000292F22952F70223028F49F7039F0811117
:1023E00005C00BC0243028F49F7049F4805E88300B
:1023F00020F0C8010E94140F9F2CF92C05C0F80191
:102400009581907F99F7F9CF8F2D61960FB6F8944B
:10241000DEBF0FBECDBFDF91CF911F910F91FF9017
:10242000EF90DF90CF90BF90AF909F9008951F9353
:10243000CF93DF93CDB7DEB72C970FB6F894DEBFFE
:102440000FBECDBF4F83588769877A878B879C875C
:10245000CE0107960E9445108823D1F09F81888580
:102460002A853B85232B31F08F3F31F481E09F3F5C
:1024700019F403C081E001C080E080FD47C04F81B6
:10248000588569857A858B859C850E949A0F3EC008
:1024900086E0FE013796DE01119601900D928A9535
:1024A000E1F7FF81E8856A857B856115710531F06B
:1024B000EF3F31F481E0FF3F19F403C081E001C038
:1024C00080E080FD23C02091D90130E0C901019650
:1024D000877099274091D80150E084179507F1F152
:1024E000F983EA837D836C8396E0929FD001939F6A
:1024F000B00D1124A652BE4FFE01319601900D92EF
:102500009A95E1F78093D9010E94AA0F16E0809175
:10251000D8019091D901891771F1189FC001112438
:1025200086529E4F0E944510882329F1E091D801E0
:102530001E9FF0011124E652FE4F408151816281BD
:102540007381848195810E949A0F8091D80190E0D7
:102550000196877099278093D801D9CF0E945E0F8A
:102560001092D9011092D801EAE0F2E086E0DF0192
:102570001D928A95E9F72C960FB6F894DEBF0FBE30
:10258000CDBFDF91CF911F910895EF92FF920F93EE
:102590001F93CF93DF938C01892B09F46CC0F12C2E
:1025A000EE24E394E8012196F8018491843740F405
:1025B000843008F051C0813081F0823019F15BC065
:1025C000853709F444C0A8F19CE7980F903708F0CC
:1025D00052C08F770E94530C41C00E5F1F4FFE0107
:1025E000849190E2980F983050F48770FE2D01C0CE
:1025F000FF0F8A95EAF78F2F0E944D1514C00E9495
:10260000A40B2DC00E5F1F4FFE01849190E2980F26
:10261000983060F48770FE2D01C0FF0F8A95EAF7AD
:102620008F2F0E9453150E94781519C00E94530CD9
:1026300016C00E5F1F4FFE01C491CC2381F08FE9BD
:102640009FE00197F1F700C00000C150F6CF0E5F88
:102650001F4FFE01F49003C00E94A40B8E018F2D2A
:10266000882309F49FCFEFE9FFE03197F1F700C02D
:1026700000008150F5CFDF91CF911F910F91FF9016
:10268000EF900895089508950C9443130C94441307
:102690000E94461360935A0270935B0280935C021F
:1026A00090935D020C94440F0C9448130F931F9366
:1026B00000915A0210915B0220915C0230915D0200
:1026C000602B712B822B932B1F910F910C9448132D
:1026D0000F931F9300915A0210915B0220915C02AC
:1026E00030915D0260237123822393231F910F9108
:1026F0000C9448130F931F9300915A0210915B02A0
:1027000020915C0230915D02602771278227932718
:102710001F910F910C9448130C9443130E948C1337
:102720006093560270935702809358029093590217
:102730000C94440F60E070E0CB010C948E130F9367
:102740001F9341E050E060E070E08A019B0104C00B
:10275000000F111F221F331F8A95D2F7C901B8013C
:102760001F910F910C948E130F931F9341E050E033
:1027700060E070E004C0440F551F661F771F8A9504
:10278000D2F78091560290915702A0915802B091D1
:1027900059028A019B01082B192B2A2B3B2BC901BB
:1027A000B8011F910F910C948E130F931F9341E06A
:1027B00050E060E070E004C0440F551F661F771FB3
:1027C0008A95D2F740955095609570958091560204
:1027D00090915702A0915802B09159028A019B0131
:1027E000082319232A233B23C901B8011F910F9104
:1027F0000C948E130F931F9341E050E060E070E063
:1028000004C0440F551F661F771F8A95D2F7809129
:10281000560290915702A0915802B09159028A0134
:102820009B01082719272A273B27C901B8011F91B7
:102830000F910C948E130F931F93009156021091D9
:1028400057022091580230915902602B712B822B34
:10285000932B1F910F910C948E130F931F93009144
:10286000560210915702209158023091590260236C
:102870007123822393231F910F910C948E130F9336
:102880001F930091560210915702209158023091E7
:10289000590260277127822793271F910F910C946B
:1028A0008E13089529E0929F800D1124E82FE6955C
:1028B000E695E695877051E001C0550F8A95EAF7D5
:1028C00085E0E89FF0011124E05FFD4F20E030E05B
:1028D00070E04081CB01022E02C0969587950A9444
:1028E000E2F78170819584278523842781932F5F68
:1028F0003F4F2530310569F7089529E0929F800DFB
:102900001124682F669566956695982F977085E0D7
:10291000689FB001112440E050E080E0FB01E40F2B
:10292000F51FE05FFD4F208130E0092E02C0369593
:1029300027950A94E2F721703327042E01C0220F55
:102940000A94EAF7822B4F5F5F4F4530510531F70C
:102950000895BF92CF92DF92EF92FF920F931F9351
:10296000CF93DF938C01C0905602D0905702E09035
:102970005802F090590280915A0290915B02A09106
:102980005C02B0915D02C82AD92AEA2AFB2ACFE16B
:10299000D0E0D701C6010C2E04C0B695A795979537
:1029A00087950A94D2F780FD04C0219790F7B12C47
:1029B00007C0BC2EB8018C2F0E9410030197A9F309
:1029C0008B2DDF91CF911F910F91FF90EF90DF90B2
:1029D000CF90BF900895CF93DF93EC010E94A9148C
:1029E000BE010E941003DF91CF9108951F93CF93F2
:1029F000DF93EB019091D701992321F0CB010E9445
:102A0000EB1413C0882349F0CB010E94A914182F9E
:102A1000682FCE010E94521404C0CB010E947D1485
:102A2000182FBE01812F0E941003DF91CF911F91BB
:102A3000089580915E02859585958595089580918C
:102A40005E028770089590915E02977081E009F4AC
:102A500080E0089580916A02089590916A02892B1E
:102A600080936A020895809590916A0289238093E9
:102A70006A02089510926A02089590916902892B62
:102A800080936902089580959091690289238093CB
:102A90006902089510926902089590916802892B45
:102AA00080936802089580959091680289238093AD
:102AB0006802089510926802089580915F02089557
:102AC00008950C9460150C94611590915F0298170D
:102AD00021F080935F020C946315089580915F024A
:102AE000882329F010925F0280E00C94631508950A
:102AF000E0910901F0910A0180916A028083E091DE
:102B00000901F0910A01908180916902892B8083EB
:102B1000E0910901F0910A01908180916802892B6E
:102B2000808380915F02882381F0E0910901F09118
:102B30000A019081892B80838091090190910A017B
:102B40000E94891681110E946E1580910901909151
:102B50000A010C94530A0C94601598E0899F900127
:102B60001124262B20935E020E94B41380915E02F2
:102B70008595859585950C94AB1510925E0280E045
:102B80000C94AB1520915E028095822380935E02A7
:102B9000982F977079F430E0482F082E000C550BD1
:102BA0002417350739F08595859585950E94D513AD
:102BB0000C94BD15089580E090E00E947D2321E0F3
:102BC0008C3E9E4F09F020E0822F089582E090E035
:102BD0000C94752383E090E00C947523CF9384E0EC
:102BE00090E00E947523C82F81E290E00E94752337
:102BF0002C2F30E0A901582BCA01CF910895CF9313
:102C0000C92F682F84E090E00E9483236C2F81E21B
:102C100090E0CF910C948323AB01BC018FE090E056
:102C20000C949523AB01BC0183E190E00C949523B7
:102C300060E070E0CB010C94121660E070E0CB0114
:102C40000E940C160C9418166CEE7EEF80E090E05B
:102C50000E94A12360E082E090E00E94832360E074
:102C600083E090E00E94832310925A0210925B024C
:102C700010925C0210925D0260E084E090E00E949D
:102C8000832360E081E290E00E94832360E085E09E
:102C900090E00E94832360E086E090E00E9483231E
:102CA0006FEF87E090E00E94832340E050E0BA019C
:102CB00088E090E00E94952360E08DE090E00E9423
:102CC000832340E050E0BA0188E190E00E94952320
:102CD00060E087E190E00E94832340E050E0BA0189
:102CE0008CE190E00E94952360E080E290E00E94F9
:102CF000832340E050E0BA0188E190E00E949523F0
:102D00000C941D160C942416682F8EE090E00C9401
:102D10008323FC01329697E080E0915029F02191C5
:102D20002223D9F38F5FF9CF0895662349F0FC0180
:102D3000329608962191621729F0E817F907D1F722
:102D400080E0089581E008959C01FC0132969FEF98
:102D500080E04191461789F09F3F19F4411101C06D
:102D6000982F8F5F8630A9F79F3F39F0F901E90F5F
:102D7000F11D97FDFA956283089508959C012A5FDD
:102D80003F4FFC014281461301C012820196821717
:102D90009307B9F708950C94A4160C94BE160296E6
:102DA00026E0FC0111922A95E9F7089508950C9404
:102DB000D6160C94D616CF930E94D9160E94A2055F
:102DC0000E94D716C0E08C2F0E94FF04892B29F4A3
:102DD000CF5FCC30C1F780E001C081E0CF91089592
:102DE0000C94D6160C94F0160E94F2168091C20232
:102DF000843049F110926C0220E488E190E00FB633
:102E0000F894A895809360000FBE2093600080E046
:102E10000E94E8020E94F21683B7817F846083BF1C
:102E200083B7816083BF7894889583B78E7F83BF93
:102E30000FB6F894A8958091600088618093600037
:102E4000109260000FBE08950C94D6160E945E0F7B
:102E50000E94470A0E94E8020C9424171F920F92C6
:102E60000FB60F9211248F939F93AF93BF938091CE
:102E70006C02811113C08091B8029091B902A091A7
:102E8000BA02B091BB024196A11DB11D8093B80258
:102E90009093B902A093BA02B093BB02BF91AF91D5
:102EA0009F918F910F900FBE0F901F90189582E009
:102EB00084BD93E095BD9AEF97BD80936E00089511
:102EC0002FB7F8948091B8029091B902A091BA02FC
:102ED000B091BB022FBF08959C014FB7F894809129
:102EE000B8029091B902A091BA02B091BB024FBF53
:102EF000821B930B089578941F920F920FB60F9236
:102F000011248F939F93AF93BF938091B8029091B8
:102F1000B902A091BA02B091BB020196A11DB11DE8
:102F20008093B8029093B902A093BA02B093BB0207
:102F3000BF91AF919F918F910F900FBE0F901F90F7
:102F4000189587E797E790930108809300089AE027
:102F500088E10FB6F894A895809360000FBE909317
:102F60006000FFCF0E94DB15811102C00E94821613
:102F70000E94E61580936B020E94EE159093BD02AD
:102F80008093BC020E94EA15682F70E080E090E018
:102F90000E9454136091560270915702809158021A
:102FA000909159020C948C138091730280FF0BC096
:102FB0006091100185E0689FB001112475956795B7
:102FC000759567952BC081FF09C06091100185E060
:102FD000689FB00111247595679520C082FF07C0D6
:102FE0006091100185E0689FB001112417C0909195
:102FF00072029923D1F060910F01961788F7209102
:10300000100185E0289F90011124929FA001939FB9
:10301000500D112470E0CA010E94472360387105E9
:1030200040F46115710519F406C065E070E0862F63
:1030300008958FE7089581E008958091730280FFDD
:1030400008C060910C0170E075956795759567955E
:1030500021C081FF06C060910C0170E075956795F5
:1030600019C082FF04C060910C0170E010C0909103
:103070007102992399F060910B019617A0F7809146
:103080000C01899FC001112470E00E944723603821
:10309000710540F46115710519F406C061E070E036
:1030A000862F08958FE7089581E00895803F21F4E9
:1030B0000E94D417819504C0813F29F40E94D4173F
:1030C000809377020895823F21F40E94D41781955E
:1030D00004C0833F29F40E94D41780937602089598
:1030E000893F19F40E941D1805C08A3F31F40E94DF
:1030F0001D1881958093780208958B3F21F40E94DA
:103100001D18819504C08C3F29F40E941D188093DE
:1031100079020895843F21F480917502816017C07F
:10312000853F21F480917502826011C0863F21F4B1
:103130008091750284600BC0873F21F480917502F5
:10314000886005C0883F31F480917502806180936A
:10315000750208958D3F21F48091730281600BC048
:103160008E3F21F480917302826005C08F3F29F465
:10317000809173028460809373020895803F39F4D4
:103180008091770287FF6AC01092770267C0813F03
:1031900029F4809177021816BCF360C090917602F2
:1031A000823F29F497FF5AC01092760257C0833F9E
:1031B00019F41916CCF352C090917802893F31F47A
:1031C00019160CF04BC01092780248C08A3F19F4CF
:1031D00097FF44C0F8CF8B3F39F48091790287FF85
:1031E0003DC0109279023AC08C3F29F48091790257
:1031F0001816BCF333C0843F21F4809175028E7F92
:1032000017C0853F21F4809175028D7F11C0863FE4
:1032100021F4809175028B7F0BC0873F21F4809150
:103220007502877F05C0883F31F4809175028F7EDB
:103230008093750213C08D3F21F4809173028E7FBD
:103240000BC08E3F21F4809173028D7F05C08F3FAC
:1032500029F4809173028B7F8093730280917602B0
:10326000811106C080917702811102C01092720212
:1032700080917802811106C080917902811102C08B
:103280001092710208950E94601720917602211118
:1032900004C020917702222321F090937002809342
:1032A0006F0220917802211104C02091790222231B
:1032B00021F090936E0280936D0284E792E00C946B
:1032C0005E0AEF92FF920F931F93CF93DF9300D08C
:1032D00000D000D0CDB7DEB786E0E4E7F2E0DE0153
:1032E000119601900D928A95E1F7E0907602F090A8
:1032F0007702009178021091790210927602109272
:1033000077021092780210927902E11003C0FF2038
:1033100009F45DC080916F02909170020E946C1759
:10332000AC0190917202992339F02091110130E0A3
:103330002417350758F04BC0209112018AE0289FCE
:10334000900111242417350718F041C09F3F19F050
:103350009F5F90937202EE2061F00E94D4171E14BA
:1033600014F09FEF01C091E0989F902D112490934D
:103370007602FF2061F00E94D4171F1414F09FEF13
:1033800001C091E0989F902D112490937702309185
:1033900076023323E1F0209177022223C1F045EB3E
:1033A0003403C0011124992319F09093760203C0CD
:1033B00081E08093760235EB2303C0011124992329
:1033C00019F09093770203C081E080937702011196
:1033D00003C0112309F45DC080916D0290916E02CB
:1033E0000E946C17AC0190917102992339F02091E1
:1033F0000D0130E02417350758F04BC020910E0125
:103400008AE0289F900111242417350718F041C045
:103410009F3F19F09F5F90937102002361F00E941B
:103420001D18101614F09FEF01C091E0989F902D89
:10343000112490937802112361F00E941D18111637
:1034400014F09FEF01C091E0989F902D112490936C
:103450007902309178023323E1F02091790222231E
:10346000C1F045EB3403C0011124992319F0909366
:10347000780203C081E08093780235EB2303C0011A
:103480001124992319F09093790203C081E080936D
:1034900079028091760281110BC0809177028111AF
:1034A00007C080917802811103C080917902811157
:1034B0000E944319EB82FC820D831E8386E0FE018D
:1034C0003196A4E7B2E001900D928A95E1F7269635
:1034D0000FB6F894DEBF0FBECDBFDF91CF911F9125
:1034E0000F91FF90EF900895E4E7F2E086E0DF01AE
:1034F0001D928A95E9F71092720210927102109251
:1035000073020895833081F128F4813059F08230BC
:10351000D1F00895853009F449C0B8F1863009F436
:1035200056C0089580911201262F30E0280F311DDA
:103530002F3F310524F4680F6093120108958FEF37
:1035400080931201089580911101262F30E0280FF9
:10355000311D2F3F310524F4680F60931101089548
:103560008FEF80931101089580911001262F30E094
:10357000280F311D2F3F310524F4680F609310018F
:1035800008958FEF80931001089580910F01262FE9
:1035900030E0280F311D2F3F310524F4680F609370
:1035A0000F0108958FEF80930F01089580910C0112
:1035B000262F30E0280F311D2F3F310524F4680FEE
:1035C00060930C0108958FEF80930C010895809112
:1035D0000B01262F30E0280F311D2F3F310524F439
:1035E000680F60930B0108958FEF80930B0108958E
:1035F000833011F128F4813049F0823091F0089540
:10360000853081F120F18630C1F108958091120159
:10361000681720F4861B80931201089510921201FE
:10362000089580911101681720F4861B8093110181
:10363000089510921101089580911001681720F4E7
:10364000861B8093100108951092100108958091B7
:103650000F01681720F4861B80930F0108951092C4
:103660000F01089580910C01681720F4861B809348
:103670000C01089510920C01089580910B016817B8
:1036800020F4861B80930B01089510920B0108957E
:103690000F931F9341E050E060E070E08A019B01CE
:1036A00004C0000F111F221F331F8A95D2F7C901D2
:1036B000B8010E9454131F910F910C945E0F8B312F
:1036C00009F468C058F58B3009F486C078F4863068
:1036D00009F445C020F4853009F44BC07FC0873021
:1036E00009F44AC0883009F477C078C0803109F401
:1036F00064C068F48E3009F071C080916B0282FB67
:10370000222720F991E0922790FB82F94CC0863164
:1037100009F462C0893109F45FC060C08A32E1F007
:1037200060F4873209F455C028F48E3108F456C08D
:103730008D5150C08932E9F051C0833450F48A333E
:1037400008F045C0853309F444C0883309F444C007
:1037500045C08334F1F142C00E9482163DC0809181
:103760006B02817F8E7F80936B0281E080937B026E
:1037700008950E94950230C080916B02982F909519
:10378000917090FB80F980936B02911125C0897F25
:10379000877F10C080916B0281FB222720F991E086
:1037A000922790FB81F980936B029923A9F0809175
:1037B0006B02816080936B020FC080916B0283FB70
:1037C000222720F991E0922790FB83F9ECCF8953CF
:1037D00001C080E00E94481B81E0089580E00895C8
:1037E00080E008950C94F01B8E518A3030F4E82F5D
:1037F000F0E0EB56FE4F8081089580E00895CF936E
:10380000C82F80917B02813051F018F0823099F1FD
:103810007DC00E942A15823209F07AC004C00E943D
:103820002A15823261F48C2F0E94F21B811104C090
:103830008C2F0E945F1B1DC081E090E01AC08C2F6E
:103840000E94F01B811114C0C43179F048F4CB30D0
:1038500079F0C03109F060C082E080937B0208C03B
:10386000C93219F0C83321F057C010927B0254C0FE
:1038700081E0817053C0C93289F118F5C43171F10A
:10388000B0F4C73009F046C08EE18093120182E3A4
:10389000809311018AE08093100184E180930F01ED
:1038A00088E080930C0188E280930B0133C082EEA4
:1038B0008C0F863078F58C2F0E94F41B80937A024F
:1038C00029C0CE34E9F020F4CB3421F56AE013C0EE
:1038D000C13579F0C235F1F461E00DC080917A0212
:1038E000882319F010927A0215C081E080937B0240
:1038F00015C061E006C080917A020E94821A0AC057
:103900006AE080917A020E94F81A04C010927B0249
:1039100080E004C081E002C080E0ABCFCF91089589
:10392000809184020895CF93DF9300D01F92CDB78A
:10393000DEB79091C202943019F589837B836A8344
:1039400082E08093E9008FEF9091E800815095FD2F
:1039500006C095ED9A95F1F700008111F5CF8091A1
:10396000E80085FF0DC040E050E063E070E0CE016C
:1039700001960E94A91E8091E8008E778093E8004E
:103980000F900F900F90DF91CF910895BC0184E0CC
:103990000C94931CBC0183E00C94931C22E02093B4
:1039A000E9002FEF3091E800215035FD06C035EDDC
:1039B0003A95F1F700002111F5CF2091E80025FF9D
:1039C0000BC040E050E066E070E00E94A91E8091CC
:1039D000E8008E778093E8000895CF93DF9321E08D
:1039E0002093E9002FEF3091E800215035FD06C00B
:1039F00035ED3A95F1F700002111F5CF2091E8005F
:103A000025FF14C0EC0140E050E068E070E00E9447
:103A1000A91E8091E8008E778093E80088E0FE017F
:103A2000ACE7B2E001900D928A95E1F7DF91CF917A
:103A300008958091C102811109C00E943A200E941C
:103A400097208091E20084608093E20008951092B4
:103A5000C1020895089508950C94261742E061EC80
:103A600081E00E94B31F42E261EC82E00C94B31F3C
:103A70008091C402833009F460C030F4813071F069
:103A8000823009F499C008958A3009F485C08B30DA
:103A900009F46BC0893009F0A7C020C08091C3022F
:103AA000813A09F0A1C08091E800877F8093E80007
:103AB0008091C7029091C802892B21F468E08CE7BD
:103AC00092E003C060E080E090E070E00E94F41EAD
:103AD0008091E8008B778093E80008958091C3027D
:103AE000813209F081C08091C7029091C80202978B
:103AF00008F07AC08091E800877F8093E800809189
:103B0000E80082FD05C08091C2028111F8CF6CC02F
:103B10002091F3008091F20090E0922B029729F41B
:103B20008091F1008B7F813021F48091F1008093AE
:103B300084028091E8008B7753C08091C302813A60
:103B400009F052C08091C7029091C802892B09F0F8
:103B50004BC08091E800877F8093E8008091E80067
:103B600080FFFCCF80911D0136C08091C30281325D
:103B7000D9F58091C7029091C802892BA9F580914F
:103B8000E800877F8093E8000E94E81F8091C502CB
:103B900080931D010C945E0F8091C302813221F548
:103BA0008091E800877F8093E8000E94E81F809161
:103BB000C6028093850208958091C302813AA1F4E0
:103BC0008091E800877F8093E8008091E80080FF83
:103BD000FCCF809185028093F1008091E8008E7780
:103BE0008093E8000C94E81F089584B7877F84BF12
:103BF0000FB6F894A895809160008861809360006A
:103C0000109260000FBE90E080E80FB6F8948093A9
:103C10006100909361000FBE0E94AE0A0E943A209C
:103C20000E9497208091E20084608093E200789463
:103C30000E942C230E94B40A83E191E00E94420A70
:103C40008091C202853069F40E94F4168091C0020E
:103C50008823B1F30E94DB16882391F30E94931E00
:103C6000EFCF0E94BC0A0E94A20A0E94A10AE8CFDC
:103C70000C943A1E292F332723303105C9F060F404
:103C80002130310581F02230310509F044C08BE349
:103C900090E024ED32E043C021323105E1F02232E0
:103CA000310549F138C082E190E02FE033E037C0C0
:103CB00099278130910549F028F0029761F5ECEAE7
:103CC000F2E005C0E0EDF2E002C0E0ECF2E0849149
:103CD00090E09F0124C06115710541F061307105CC
:103CE000D1F489E090E02FEF32E019C089E090E054
:103CF00026EE32E014C06115710541F061307105A6
:103D000051F481E890E021E233E009C080E490E0E2
:103D100022EA33E004C080E090E020E030E0FA01E5
:103D200031832083089580E189BD82E189BD09B492
:103D300000FEFDCF8091D8008F7D8093D8008091C8
:103D4000E00082608093E0008091E00081FDFCCF84
:103D50000895CF92DF92EF92FF920F931F93CF932C
:103D6000DF93EC018B017A010E940720811133C09F
:103D7000E114F10439F0F70180819181081B190BDE
:103D8000C80FD91FC12CD12C0115110519F1809133
:103D9000E80085FD16C08091E8008E778093E800EA
:103DA000E114F10449F0F70180819181C80ED91E18
:103DB000D182C08285E00FC00E940720882321F3B2
:103DC0000AC089918093F10001501109FFEFCF1AC9
:103DD000DF0ADACF80E0DF91CF911F910F91FF9042
:103DE000EF90DF90CF9008952091C9023091CA02E0
:103DF0002617370748F06115710539F42091E8005E
:103E00002E772093E80001C0B901FC0120E0611584
:103E1000710579F18091C2028823F1F18530F1F1C9
:103E20008091E80083FD3CC08091E80082FD2EC0B7
:103E30008091E80080FFEBCF2091F3008091F200A9
:103E400090E0922B6115710551F08830910538F49E
:103E500021912093F100615071090196F3CF21E087
:103E6000089709F020E08091E8008E778093E800C1
:103E7000CECF2111CFCF0AC08091C202882361F03A
:103E8000853061F08091E80083FD0AC08091E800F0
:103E900082FFF2CF80E0089582E0089583E00895E4
:103EA00081E008952091C9023091CA022617370790
:103EB00048F06115710539F42091E8002E772093C0
:103EC000E80001C0B901FC0120E06115710591F124
:103ED0008091C202882309F440C0853009F43FC0B4
:103EE0008091E80083FD3DC08091E80082FD2FC0F5
:103EF0008091E80080FFE9CF2091F3008091F200EB
:103F000090E0922B6115710559F08830910540F4CD
:103F100024912093F1003196615071090196F2CFFE
:103F200021E0089709F020E08091E8008E778093E7
:103F3000E800CBCF2111CCCF0AC08091C2028823E8
:103F400061F0853061F08091E80083FD0AC08091C6
:103F5000E80082FFF2CF80E0089582E0089583E0D8
:103F6000089581E00895982F973068F59093E900BF
:103F7000981739F07091EC002091ED005091F0000D
:103F800003C0242F762F50E021FD02C09F5FECCFAD
:103F90003091EB003E7F3093EB003091ED003D7FA0
:103FA0003093ED003091EB0031603093EB00709373
:103FB000EC002093ED005093F0002091EE0027FDDF
:103FC000E5CF80E008958F708093E90081E0089547
:103FD0008091C30287FF11C08091E80082FD05C077
:103FE0008091C2028111F8CF11C08091E8008B77D7
:103FF0000BC08091C202882349F08091E80080FFC5
:10400000F8CF8091E8008E778093E80008952091A2
:10401000E4003091E50095E64091EC00842F81703A
:1040200040FF23C08091E80080FD1DC08091C20246
:10403000882399F0853099F08091EB0085FD11C0BF
:104040004091E4005091E5002417350729F3915081
:1040500011F09A01E1CF84E0089582E0089583E0B1
:10406000089581E0089580E008954091E80042FFBE
:10407000DDCF08950E94A8200E94B020E0EEF0E07D
:10408000808181608083E8EDF0E080818F7780839C
:1040900019BCA7EDB0E08C918E7F8C9380818F7ED0
:1040A00080831092C10208950F931F93CF93DF93E3
:1040B0000E94A8200E94B020C8EDD0E088818F77B0
:1040C000888388818068888388818F7D888319BCF4
:1040D0001092C2021092BE021092C0021092BF0251
:1040E00000EE10E0F80180818B7F80838881816001
:1040F000888342E060E080E00E94B31FE1EEF0E0E0
:1041000080818E7F8083E2EEF0E080818160808319
:10411000808188608083F80180818E7F80838881A0
:1041200080618883DF91CF911F910F910895E8ED11
:10413000F0E080818F7E8083E7EDF0E08081816018
:10414000808384E082BF81E08093C1020C9454207C
:10415000E8EDF0E080818E7F80831092E200089588
:104160001092DA001092E10008951F920F920FB69C
:104170000F9211242F933F934F935F936F937F93ED
:104180008F939F93AF93BF93EF93FF938091E10041
:1041900082FF0BC08091E20082FF07C08091E100A6
:1041A0008B7F8093E1000E942B238091DA0080FFB7
:1041B0001FC08091D80080FF1BC08091DA008E7FE5
:1041C0008093DA008091D90080FF0DC080E189BD25
:1041D00082E189BD09B400FEFDCF81E08093C20277
:1041E0000E94191D05C019BC1092C2020E94271D11
:1041F0008091E10080FF19C08091E20080FF15C02E
:104200008091E2008E7F8093E2008091E2008061E5
:104210008093E2008091D80080628093D80019BC1E
:1042200085E08093C2020E942B1D8091E10084FFF3
:1042300030C08091E20084FF2CC080E189BD82E122
:1042400089BD09B400FEFDCF8091D8008F7D809399
:10425000D8008091E1008F7E8093E1008091E200A0
:104260008F7E8093E2008091E20081608093E20083
:104270008091BE02882311F084E007C08091E300A2
:1042800087FD02C081E001C083E08093C2020E94EA
:104290002C1D8091E10083FF29C08091E20083FF03
:1042A00025C08091E100877F8093E10082E08093C8
:1042B000C2021092BE028091E1008E7F8093E100E5
:1042C0008091E2008E7F8093E2008091E200806125
:1042D0008093E20042E060E080E00E94B31F8091A2
:1042E000F00088608093F0000E942A1DFF91EF91FA
:1042F000BF91AF919F918F917F916F915F914F91FE
:104300003F912F910F900FBE0F901F9018951F9205
:104310000F920FB60F9211242F933F934F935F93F9
:104320006F937F938F939F93AF93BF93CF93DF93BD
:10433000EF93FF93C091E900CF708091EC00D82FEC
:10434000D17080FDD0E81092E9008091F000877F65
:104350008093F00078940E94CB211092E900809124
:10436000F00088608093F000CD2BCF70C093E900FF
:10437000FF91EF91DF91CF91BF91AF919F918F917D
:104380007F916F915F914F913F912F910F900FBE51
:104390000F901F9018951F93CF93DF93CDB7DEB783
:1043A000AA970FB6F894DEBF0FBECDBFE3ECF2E0E4
:1043B0008091F100819322E0EB3CF207C9F70E9463
:1043C000381D8091E80083FF2EC18091C302909137
:1043D000C402492F50E04A30510508F024C1FA01C7
:1043E000EC58FF4F0C945B23803821F0823809F0A1
:1043F0001AC108C08091BF029091C002992389F030
:1044000082600FC08091C7028F70873008F00BC1A7
:104410008093E9008091EB0085FB882780F910925A
:10442000E9009091E800977F9093E8008093F10075
:104430001092F100D1C0282F2D7F09F0F4C08823FD
:1044400019F0823061F0EFC08091C502813009F02F
:10445000EAC0933009F080E08093C0022EC08091C2
:10446000C50281112AC08091C7028F702FEF280FDB
:10447000263008F0D8C08093E9002091EB0020FF9F
:104480001CC0933021F48091EB00806214C09091A5
:10449000EB0090619093EB0021E030E0A90102C0B5
:1044A000440F551F8A95E2F74093EA001092EA0004
:1044B0008091EB0088608093EB001092E90080917E
:1044C000E800877F8093E8000E94E81FACC081115C
:1044D000AAC01091C5021F778091E3008078812BDC
:1044E0008093E3008091E800877F8093E8000E943A
:1044F000E81F8091E80080FFFCCF8091E300806896
:104500008093E300111102C082E001C083E0809338
:10451000C20289C08058823008F085C08091C502EF
:104520009091C6028C3D53E0950779F583E08A832C
:104530008AE289834FB7F894DE01139620E03EE0CB
:1045400051E2E32FF0E050935700E49120FF03C0C5
:10455000E295EF703F5FEF708E2F90E0EA3010F041
:10456000C79601C0C0968D939D932F5F243149F764
:104570004FBF8091E800877F8093E8006AE270E097
:10458000CE0101960E94F41E16C06091C702709180
:10459000C802AE014F5F5F4F0E94381EBC01892BDD
:1045A00009F441C09091E800977F9093E8008981D9
:1045B0009A810E94521F8091E8008B778093E800D7
:1045C00032C0803881F58091E800877F8093E800D1
:1045D0008091BE028093F1008091E8008E7772CFC7
:1045E000811121C08091C5029091C602992702973E
:1045F000D4F48091E800877F8093E8008091C50221
:104600008093BE020E94E81F8091BE02811106C005
:104610008091E30087FD02C081E001C084E08093C7
:10462000C2020E942E1D8091E80083FF0AC0809183
:10463000E800877F8093E8008091EB0080628093A0
:10464000EB00AA960FB6F894DEBF0FBECDBFDF9188
:10465000CF911F9108950895CF938091C20288232E
:10466000A1F0C091E900CF709091EC00892F81708A
:1046700090FD80E8C82B1092E9008091E80083FD4E
:104680000E94CB21CF70C093E900CF91089597FB92
:10469000072E16F4009407D077FD09D00E946123FD
:1046A00007FC05D03EF4909581959F4F0895709535
:1046B00061957F4F0895EE0FFF1F0590F491E02D57
:1046C0000994AA1BBB1B51E107C0AA1FBB1FA61759
:1046D000B70710F0A61BB70B881F991F5A95A9F7AB
:1046E00080959095BC01CD010895F999FECF92BDBA
:1046F00081BDF89A992780B50895A8E1B0E042E01D
:1047000050E00C94A923262FF999FECF92BD81BDCC
:10471000F89A019700B4021639F01FBA20BD0FB6FF
:10472000F894FA9AF99A0FBE08950396272F0E94DB
:1047300084230E948323252F0E948423242F0C94FA
:1047400084230196272F0E9484230C948323DC0169
:10475000CB01FC01F999FECF06C0F2BDE1BDF89A8C
:10476000319600B40D9241505040B8F70895F89436
:02477000FFCF79
:1047720001A50100A6010CA60160022808641E140E
:104782000A321E901CED1CCE1CCA1CC61C01E20083
:10479200E900EA00B500B600B700CD008301CC0005
:1047A2008A01920194012102230224022502260297
:1047B20027022A02B300B4006F00700081828335A1
:1047C20036323331F7F6F5F49392946697C60000C9
:1047D20000000000E200E900EA00B500B600B70000
:1047E200CD008301CC008A019201940121022302AF
:1047F20024022502260227022A02B300B4006F0017
:104802007000818283010203040506070809000083
:00000001FF
